{
  "contractName": "CentrifugeAsset",
  "abi": [
    {
      "anonymous": false,
      "inputs": [
        {
          "indexed": true,
          "internalType": "bytes32",
          "name": "asset",
          "type": "bytes32"
        }
      ],
      "name": "AssetStored",
      "type": "event"
    },
    {
      "inputs": [
        {
          "internalType": "bytes32",
          "name": "",
          "type": "bytes32"
        }
      ],
      "name": "_assetsStored",
      "outputs": [
        {
          "internalType": "bool",
          "name": "",
          "type": "bool"
        }
      ],
      "stateMutability": "view",
      "type": "function"
    },
    {
      "inputs": [
        {
          "internalType": "bytes32",
          "name": "asset",
          "type": "bytes32"
        }
      ],
      "name": "store",
      "outputs": [],
      "stateMutability": "nonpayable",
      "type": "function"
    }
  ],
  "bytecode": "0x608060405234801561001057600080fd5b5061029e806100206000396000f3fe608060405234801561001057600080fd5b50600436106100365760003560e01c8063654cf88c1461003b57806396add60014610057575b600080fd5b61005560048036038101906100509190610177565b610087565b005b610071600480360381019061006c9190610177565b610142565b60405161007e91906101ef565b60405180910390f35b60008082815260200190815260200160002060009054906101000a900460ff16156100e7576040517f08c379a00000000000000000000000000000000000000000000000000000000081526004016100de9061020a565b60405180910390fd5b600160008083815260200190815260200160002060006101000a81548160ff021916908315150217905550807f08ae553713effae7116be03743b167b8b803449ee8fb912c2ec43dc2c824f53560405160405180910390a250565b60006020528060005260406000206000915054906101000a900460ff1681565b60008135905061017181610251565b92915050565b60006020828403121561018957600080fd5b600061019784828501610162565b91505092915050565b6101a98161023b565b82525050565b60006101bc60178361022a565b91507f617373657420697320616c72656164792073746f7265640000000000000000006000830152602082019050919050565b600060208201905061020460008301846101a0565b92915050565b60006020820190508181036000830152610223816101af565b9050919050565b600082825260208201905092915050565b60008115159050919050565b6000819050919050565b61025a81610247565b811461026557600080fd5b5056fea26469706673582212205886c486556787a51c610c425c0b890f9705558e28891047d93399da1dbc210764736f6c63430006040033",
  "source": "pragma solidity 0.6.4;\npragma experimental ABIEncoderV2;\n\n/**\n    @title Represents a bridged Centrifuge asset.\n    @author ChainSafe Systems.\n */\ncontract CentrifugeAsset {\n  mapping (bytes32 => bool) public _assetsStored;\n\n  event AssetStored(bytes32 indexed asset);\n\n  /**\n    @notice Marks {asset} as stored.\n    @param asset Hash of asset deposited on Centrifuge chain.\n    @notice {asset} must not have already been stored.\n    @notice Emits {AssetStored} event.\n   */\n  function store(bytes32 asset) external {\n      require(!_assetsStored[asset], \"asset is already stored\");\n\n      _assetsStored[asset] = true;\n      emit AssetStored(asset);\n  }\n}",
  "sourcePath": "/home/saadjhk/Desktop/chainbridge-solidity/contracts/CentrifugeAsset.sol",
  "compiler": {
    "name": "solc",
    "version": "0.6.4+commit.1dca32f3.Emscripten.clang"
  },
  "schemaVersion": "3.3.3",
  "updatedAt": "2021-04-22T06:05:54.772Z",
  "devdoc": {
    "author": "ChainSafe Systems.",
    "methods": {
      "store(bytes32)": {
        "params": {
          "asset": "Hash of asset deposited on Centrifuge chain."
        }
      }
    },
    "title": "Represents a bridged Centrifuge asset."
  },
  "userdoc": {
    "methods": {
      "store(bytes32)": {
        "notice": "Marks {asset} as stored.{asset} must not have already been stored.Emits {AssetStored} event."
      }
    }
  }
}