{
  "contractName": "ERC721Handler",
  "abi": [
    {
      "inputs": [
        {
          "internalType": "address",
          "name": "bridgeAddress",
          "type": "address"
        },
        {
          "internalType": "bytes32[]",
          "name": "initialResourceIDs",
          "type": "bytes32[]"
        },
        {
          "internalType": "address[]",
          "name": "initialContractAddresses",
          "type": "address[]"
        },
        {
          "internalType": "address[]",
          "name": "burnableContractAddresses",
          "type": "address[]"
        }
      ],
      "stateMutability": "nonpayable",
      "type": "constructor"
    },
    {
      "inputs": [],
      "name": "_bridgeAddress",
      "outputs": [
        {
          "internalType": "address",
          "name": "",
          "type": "address"
        }
      ],
      "stateMutability": "view",
      "type": "function"
    },
    {
      "inputs": [
        {
          "internalType": "address",
          "name": "",
          "type": "address"
        }
      ],
      "name": "_burnList",
      "outputs": [
        {
          "internalType": "bool",
          "name": "",
          "type": "bool"
        }
      ],
      "stateMutability": "view",
      "type": "function"
    },
    {
      "inputs": [
        {
          "internalType": "address",
          "name": "",
          "type": "address"
        }
      ],
      "name": "_contractWhitelist",
      "outputs": [
        {
          "internalType": "bool",
          "name": "",
          "type": "bool"
        }
      ],
      "stateMutability": "view",
      "type": "function"
    },
    {
      "inputs": [
        {
          "internalType": "uint8",
          "name": "",
          "type": "uint8"
        },
        {
          "internalType": "uint64",
          "name": "",
          "type": "uint64"
        }
      ],
      "name": "_depositRecords",
      "outputs": [
        {
          "internalType": "address",
          "name": "_tokenAddress",
          "type": "address"
        },
        {
          "internalType": "uint8",
          "name": "_lenDestinationRecipientAddress",
          "type": "uint8"
        },
        {
          "internalType": "uint8",
          "name": "_destinationChainID",
          "type": "uint8"
        },
        {
          "internalType": "bytes32",
          "name": "_resourceID",
          "type": "bytes32"
        },
        {
          "internalType": "bytes",
          "name": "_destinationRecipientAddress",
          "type": "bytes"
        },
        {
          "internalType": "address",
          "name": "_depositer",
          "type": "address"
        },
        {
          "internalType": "uint256",
          "name": "_tokenID",
          "type": "uint256"
        },
        {
          "internalType": "bytes",
          "name": "_metaData",
          "type": "bytes"
        }
      ],
      "stateMutability": "view",
      "type": "function"
    },
    {
      "inputs": [
        {
          "internalType": "bytes32",
          "name": "",
          "type": "bytes32"
        }
      ],
      "name": "_resourceIDToTokenContractAddress",
      "outputs": [
        {
          "internalType": "address",
          "name": "",
          "type": "address"
        }
      ],
      "stateMutability": "view",
      "type": "function"
    },
    {
      "inputs": [
        {
          "internalType": "address",
          "name": "",
          "type": "address"
        }
      ],
      "name": "_tokenContractAddressToResourceID",
      "outputs": [
        {
          "internalType": "bytes32",
          "name": "",
          "type": "bytes32"
        }
      ],
      "stateMutability": "view",
      "type": "function"
    },
    {
      "inputs": [
        {
          "internalType": "address",
          "name": "tokenAddress",
          "type": "address"
        },
        {
          "internalType": "address",
          "name": "owner",
          "type": "address"
        },
        {
          "internalType": "uint256",
          "name": "tokenID",
          "type": "uint256"
        }
      ],
      "name": "fundERC721",
      "outputs": [],
      "stateMutability": "nonpayable",
      "type": "function"
    },
    {
      "inputs": [
        {
          "internalType": "address",
          "name": "contractAddress",
          "type": "address"
        }
      ],
      "name": "setBurnable",
      "outputs": [],
      "stateMutability": "nonpayable",
      "type": "function"
    },
    {
      "inputs": [
        {
          "internalType": "bytes32",
          "name": "resourceID",
          "type": "bytes32"
        },
        {
          "internalType": "address",
          "name": "contractAddress",
          "type": "address"
        }
      ],
      "name": "setResource",
      "outputs": [],
      "stateMutability": "nonpayable",
      "type": "function"
    },
    {
      "inputs": [
        {
          "internalType": "uint64",
          "name": "depositNonce",
          "type": "uint64"
        },
        {
          "internalType": "uint8",
          "name": "destId",
          "type": "uint8"
        }
      ],
      "name": "getDepositRecord",
      "outputs": [
        {
          "components": [
            {
              "internalType": "address",
              "name": "_tokenAddress",
              "type": "address"
            },
            {
              "internalType": "uint8",
              "name": "_lenDestinationRecipientAddress",
              "type": "uint8"
            },
            {
              "internalType": "uint8",
              "name": "_destinationChainID",
              "type": "uint8"
            },
            {
              "internalType": "bytes32",
              "name": "_resourceID",
              "type": "bytes32"
            },
            {
              "internalType": "bytes",
              "name": "_destinationRecipientAddress",
              "type": "bytes"
            },
            {
              "internalType": "address",
              "name": "_depositer",
              "type": "address"
            },
            {
              "internalType": "uint256",
              "name": "_tokenID",
              "type": "uint256"
            },
            {
              "internalType": "bytes",
              "name": "_metaData",
              "type": "bytes"
            }
          ],
          "internalType": "struct ERC721Handler.DepositRecord",
          "name": "",
          "type": "tuple"
        }
      ],
      "stateMutability": "view",
      "type": "function"
    },
    {
      "inputs": [
        {
          "internalType": "bytes32",
          "name": "resourceID",
          "type": "bytes32"
        },
        {
          "internalType": "uint8",
          "name": "destinationChainID",
          "type": "uint8"
        },
        {
          "internalType": "uint64",
          "name": "depositNonce",
          "type": "uint64"
        },
        {
          "internalType": "address",
          "name": "depositer",
          "type": "address"
        },
        {
          "internalType": "bytes",
          "name": "data",
          "type": "bytes"
        }
      ],
      "name": "deposit",
      "outputs": [],
      "stateMutability": "nonpayable",
      "type": "function"
    },
    {
      "inputs": [
        {
          "internalType": "bytes32",
          "name": "resourceID",
          "type": "bytes32"
        },
        {
          "internalType": "bytes",
          "name": "data",
          "type": "bytes"
        }
      ],
      "name": "executeProposal",
      "outputs": [],
      "stateMutability": "nonpayable",
      "type": "function"
    },
    {
      "inputs": [
        {
          "internalType": "address",
          "name": "tokenAddress",
          "type": "address"
        },
        {
          "internalType": "address",
          "name": "recipient",
          "type": "address"
        },
        {
          "internalType": "uint256",
          "name": "tokenID",
          "type": "uint256"
        }
      ],
      "name": "withdraw",
      "outputs": [],
      "stateMutability": "nonpayable",
      "type": "function"
    }
  ],
  "bytecode": "0x60806040523480156200001157600080fd5b506040516200283e3803806200283e833981810160405281019062000037919062000489565b81518351146200007e576040517f08c379a0000000000000000000000000000000000000000000000000000000008152600401620000759062000632565b60405180910390fd5b836000806101000a81548173ffffffffffffffffffffffffffffffffffffffff021916908373ffffffffffffffffffffffffffffffffffffffff16021790555060008090505b8351811015620001165762000108848281518110620000df57fe5b6020026020010151848381518110620000f457fe5b60200260200101516200016560201b60201c565b8080600101915050620000c4565b5060008090505b81518110156200015a576200014c8282815181106200013857fe5b60200260200101516200025760201b60201c565b80806001019150506200011d565b505050505062000757565b806001600084815260200190815260200160002060006101000a81548173ffffffffffffffffffffffffffffffffffffffff021916908373ffffffffffffffffffffffffffffffffffffffff16021790555081600260008373ffffffffffffffffffffffffffffffffffffffff1673ffffffffffffffffffffffffffffffffffffffff168152602001908152602001600020819055506001600360008373ffffffffffffffffffffffffffffffffffffffff1673ffffffffffffffffffffffffffffffffffffffff16815260200190815260200160002060006101000a81548160ff0219169083151502179055505050565b600360008273ffffffffffffffffffffffffffffffffffffffff1673ffffffffffffffffffffffffffffffffffffffff16815260200190815260200160002060009054906101000a900460ff16620002e6576040517f08c379a0000000000000000000000000000000000000000000000000000000008152600401620002dd9062000610565b60405180910390fd5b6001600460008373ffffffffffffffffffffffffffffffffffffffff1673ffffffffffffffffffffffffffffffffffffffff16815260200190815260200160002060006101000a81548160ff02191690831515021790555050565b600081519050620003528162000723565b92915050565b600082601f8301126200036a57600080fd5b8151620003816200037b8262000682565b62000654565b91508181835260208401935060208101905083856020840282011115620003a757600080fd5b60005b83811015620003db5781620003c0888262000341565b845260208401935060208301925050600181019050620003aa565b5050505092915050565b600082601f830112620003f757600080fd5b81516200040e6200040882620006ab565b62000654565b915081818352602084019350602081019050838560208402820111156200043457600080fd5b60005b838110156200046857816200044d888262000472565b84526020840193506020830192505060018101905062000437565b5050505092915050565b60008151905062000483816200073d565b92915050565b60008060008060808587031215620004a057600080fd5b6000620004b08782880162000341565b945050602085015167ffffffffffffffff811115620004ce57600080fd5b620004dc87828801620003e5565b935050604085015167ffffffffffffffff811115620004fa57600080fd5b620005088782880162000358565b925050606085015167ffffffffffffffff8111156200052657600080fd5b620005348782880162000358565b91505092959194509250565b60006200054f602483620006d4565b91507f70726f766964656420636f6e7472616374206973206e6f742077686974656c6960008301527f73746564000000000000000000000000000000000000000000000000000000006020830152604082019050919050565b6000620005b7603c83620006d4565b91507f696e697469616c5265736f7572636549447320616e6420696e697469616c436f60008301527f6e7472616374416464726573736573206c656e206d69736d61746368000000006020830152604082019050919050565b600060208201905081810360008301526200062b8162000540565b9050919050565b600060208201905081810360008301526200064d81620005a8565b9050919050565b6000604051905081810181811067ffffffffffffffff821117156200067857600080fd5b8060405250919050565b600067ffffffffffffffff8211156200069a57600080fd5b602082029050602081019050919050565b600067ffffffffffffffff821115620006c357600080fd5b602082029050602081019050919050565b600082825260208201905092915050565b6000620006f28262000703565b9050919050565b6000819050919050565b600073ffffffffffffffffffffffffffffffffffffffff82169050919050565b6200072e81620006e5565b81146200073a57600080fd5b50565b6200074881620006f9565b81146200075457600080fd5b50565b6120d780620007676000396000f3fe608060405234801561001057600080fd5b50600436106100cf5760003560e01c8063735429801161008c578063ba484c0911610066578063ba484c0914610229578063c8ba6c8714610259578063d9caed1214610289578063e248cff2146102a5576100cf565b806373542980146101c15780637f79bea8146101dd578063b8fa37361461020d576100cf565b806307b7ed99146100d45780630a6d55d8146100f0578063318c136e1461012057806338995da91461013e5780634402027f1461015a5780636a70d08114610191575b600080fd5b6100ee60048036038101906100e9919061167d565b6102c1565b005b61010a6004803603810190610105919061171e565b6102d5565b6040516101179190611c72565b60405180910390f35b610128610308565b6040516101359190611c72565b60405180910390f35b610158600480360381019061015391906117db565b61032d565b005b610174600480360381019061016f91906118ea565b610731565b604051610188989796959493929190611d02565b60405180910390f35b6101ab60048036038101906101a6919061167d565b610910565b6040516101b89190611d8e565b60405180910390f35b6101db60048036038101906101d691906116a6565b610930565b005b6101f760048036038101906101f2919061167d565b6109aa565b6040516102049190611d8e565b60405180910390f35b61022760048036038101906102229190611747565b6109ca565b005b610243600480360381019061023e91906118ae565b6109e0565b6040516102509190611e3f565b60405180910390f35b610273600480360381019061026e919061167d565b610c78565b6040516102809190611da9565b60405180910390f35b6102a3600480360381019061029e91906116a6565b610c90565b005b6102bf60048036038101906102ba9190611783565b610ca9565b005b6102c9610e46565b6102d281610ed7565b50565b60016020528060005260406000206000915054906101000a900473ffffffffffffffffffffffffffffffffffffffff1681565b6000809054906101000a900473ffffffffffffffffffffffffffffffffffffffff1681565b610335610e46565b60008060608060c435925060e4359350604051915083820160200160405260e4360360e483376000600160008c815260200190815260200160002060009054906101000a900473ffffffffffffffffffffffffffffffffffffffff169050600360008273ffffffffffffffffffffffffffffffffffffffff1673ffffffffffffffffffffffffffffffffffffffff16815260200190815260200160002060009054906101000a900460ff1661041f576040517f08c379a000000000000000000000000000000000000000000000000000000000815260040161041690611e1f565b60405180910390fd5b61044f635b5e139f60e01b8273ffffffffffffffffffffffffffffffffffffffff16610fbe90919063ffffffff16565b156104eb5760008190508073ffffffffffffffffffffffffffffffffffffffff1663c87b56dd866040518263ffffffff1660e01b81526004016104929190611e61565b60006040518083038186803b1580156104aa57600080fd5b505afa1580156104be573d6000803e3d6000fd5b505050506040513d6000823e3d601f19601f820116820180604052508101906104e7919061186d565b9250505b600460008273ffffffffffffffffffffffffffffffffffffffff1673ffffffffffffffffffffffffffffffffffffffff16815260200190815260200160002060009054906101000a900460ff161561054c576105478185610fe3565b610559565b61055881893087611058565b5b6040518061010001604052808273ffffffffffffffffffffffffffffffffffffffff1681526020018660ff1681526020018b60ff1681526020018c81526020018481526020018973ffffffffffffffffffffffffffffffffffffffff16815260200185815260200183815250600560008c60ff1660ff16815260200190815260200160002060008b67ffffffffffffffff1667ffffffffffffffff16815260200190815260200160002060008201518160000160006101000a81548173ffffffffffffffffffffffffffffffffffffffff021916908373ffffffffffffffffffffffffffffffffffffffff16021790555060208201518160000160146101000a81548160ff021916908360ff16021790555060408201518160000160156101000a81548160ff021916908360ff1602179055506060820151816001015560808201518160020190805190602001906106b2929190611442565b5060a08201518160030160006101000a81548173ffffffffffffffffffffffffffffffffffffffff021916908373ffffffffffffffffffffffffffffffffffffffff16021790555060c0820151816004015560e0820151816005019080519060200190610720929190611442565b509050505050505050505050505050565b6005602052816000526040600020602052806000526040600020600091509150508060000160009054906101000a900473ffffffffffffffffffffffffffffffffffffffff16908060000160149054906101000a900460ff16908060000160159054906101000a900460ff1690806001015490806002018054600181600116156101000203166002900480601f01602080910402602001604051908101604052809291908181526020018280546001816001161561010002031660029004801561083c5780601f106108115761010080835404028352916020019161083c565b820191906000526020600020905b81548152906001019060200180831161081f57829003601f168201915b5050505050908060030160009054906101000a900473ffffffffffffffffffffffffffffffffffffffff1690806004015490806005018054600181600116156101000203166002900480601f0160208091040260200160405190810160405280929190818152602001828054600181600116156101000203166002900480156109065780601f106108db57610100808354040283529160200191610906565b820191906000526020600020905b8154815290600101906020018083116108e957829003601f168201915b5050505050905088565b60046020528060005260406000206000915054906101000a900460ff1681565b60008390508073ffffffffffffffffffffffffffffffffffffffff166323b872dd8430856040518463ffffffff1660e01b815260040161097293929190611c8d565b600060405180830381600087803b15801561098c57600080fd5b505af11580156109a0573d6000803e3d6000fd5b5050505050505050565b60036020528060005260406000206000915054906101000a900460ff1681565b6109d2610e46565b6109dc82826110d3565b5050565b6109e86114c2565b600560008360ff1660ff16815260200190815260200160002060008467ffffffffffffffff1667ffffffffffffffff168152602001908152602001600020604051806101000160405290816000820160009054906101000a900473ffffffffffffffffffffffffffffffffffffffff1673ffffffffffffffffffffffffffffffffffffffff1673ffffffffffffffffffffffffffffffffffffffff1681526020016000820160149054906101000a900460ff1660ff1660ff1681526020016000820160159054906101000a900460ff1660ff1660ff16815260200160018201548152602001600282018054600181600116156101000203166002900480601f016020809104026020016040519081016040528092919081815260200182805460018160011615610100020316600290048015610b655780601f10610b3a57610100808354040283529160200191610b65565b820191906000526020600020905b815481529060010190602001808311610b4857829003601f168201915b505050505081526020016003820160009054906101000a900473ffffffffffffffffffffffffffffffffffffffff1673ffffffffffffffffffffffffffffffffffffffff1673ffffffffffffffffffffffffffffffffffffffff16815260200160048201548152602001600582018054600181600116156101000203166002900480601f016020809104026020016040519081016040528092919081815260200182805460018160011615610100020316600290048015610c675780601f10610c3c57610100808354040283529160200191610c67565b820191906000526020600020905b815481529060010190602001808311610c4a57829003601f168201915b505050505081525050905092915050565b60026020528060005260406000206000915090505481565b610c98610e46565b610ca4833084846111c5565b505050565b610cb1610e46565b6000606080606435925060405191506084358060a401358184016040016040528060200160840136036084853760405192508083016040016040528160a40180360381853750505060006020830151905060006001600089815260200190815260200160002060009054906101000a900473ffffffffffffffffffffffffffffffffffffffff169050600360008273ffffffffffffffffffffffffffffffffffffffff1673ffffffffffffffffffffffffffffffffffffffff16815260200190815260200160002060009054906101000a900460ff16610dc6576040517f08c379a0000000000000000000000000000000000000000000000000000000008152600401610dbd90611e1f565b60405180910390fd5b600460008273ffffffffffffffffffffffffffffffffffffffff1673ffffffffffffffffffffffffffffffffffffffff16815260200190815260200160002060009054906101000a900460ff1615610e2c57610e27818360601c8786611240565b610e3c565b610e3b81308460601c886111c5565b5b5050505050505050565b6000809054906101000a900473ffffffffffffffffffffffffffffffffffffffff1673ffffffffffffffffffffffffffffffffffffffff163373ffffffffffffffffffffffffffffffffffffffff1614610ed5576040517f08c379a0000000000000000000000000000000000000000000000000000000008152600401610ecc90611ddf565b60405180910390fd5b565b600360008273ffffffffffffffffffffffffffffffffffffffff1673ffffffffffffffffffffffffffffffffffffffff16815260200190815260200160002060009054906101000a900460ff16610f63576040517f08c379a0000000000000000000000000000000000000000000000000000000008152600401610f5a90611dff565b60405180910390fd5b6001600460008373ffffffffffffffffffffffffffffffffffffffff1673ffffffffffffffffffffffffffffffffffffffff16815260200190815260200160002060006101000a81548160ff02191690831515021790555050565b6000610fc9836112bb565b8015610fdb5750610fda83836112ef565b5b905092915050565b60008290508073ffffffffffffffffffffffffffffffffffffffff166342966c68836040518263ffffffff1660e01b81526004016110219190611e61565b600060405180830381600087803b15801561103b57600080fd5b505af115801561104f573d6000803e3d6000fd5b50505050505050565b60008490508073ffffffffffffffffffffffffffffffffffffffff166323b872dd8585856040518463ffffffff1660e01b815260040161109a93929190611c8d565b600060405180830381600087803b1580156110b457600080fd5b505af11580156110c8573d6000803e3d6000fd5b505050505050505050565b806001600084815260200190815260200160002060006101000a81548173ffffffffffffffffffffffffffffffffffffffff021916908373ffffffffffffffffffffffffffffffffffffffff16021790555081600260008373ffffffffffffffffffffffffffffffffffffffff1673ffffffffffffffffffffffffffffffffffffffff168152602001908152602001600020819055506001600360008373ffffffffffffffffffffffffffffffffffffffff1673ffffffffffffffffffffffffffffffffffffffff16815260200190815260200160002060006101000a81548160ff0219169083151502179055505050565b60008490508073ffffffffffffffffffffffffffffffffffffffff166323b872dd8585856040518463ffffffff1660e01b815260040161120793929190611c8d565b600060405180830381600087803b15801561122157600080fd5b505af1158015611235573d6000803e3d6000fd5b505050505050505050565b60008490508073ffffffffffffffffffffffffffffffffffffffff1663d3fc98648585856040518463ffffffff1660e01b815260040161128293929190611cc4565b600060405180830381600087803b15801561129c57600080fd5b505af11580156112b0573d6000803e3d6000fd5b505050505050505050565b60006112ce826301ffc9a760e01b6112ef565b80156112e857506112e68263ffffffff60e01b6112ef565b155b9050919050565b60008060006112fe8585611316565b9150915081801561130c5750805b9250505092915050565b60008060606301ffc9a760e01b846040516024016113349190611dc4565b604051602081830303815290604052907bffffffffffffffffffffffffffffffffffffffffffffffffffffffff19166020820180517bffffffffffffffffffffffffffffffffffffffffffffffffffffffff83818316178352505050509050600060608673ffffffffffffffffffffffffffffffffffffffff16617530846040516113bf9190611c5b565b6000604051808303818686fa925050503d80600081146113fb576040519150601f19603f3d011682016040523d82523d6000602084013e611400565b606091505b509150915060208151101561141e576000809450945050505061143b565b818180602001905181019061143391906116f5565b945094505050505b9250929050565b828054600181600116156101000203166002900490600052602060002090601f016020900481019282601f1061148357805160ff19168380011785556114b1565b828001600101855582156114b1579182015b828111156114b0578251825591602001919060010190611495565b5b5090506114be919061153c565b5090565b604051806101000160405280600073ffffffffffffffffffffffffffffffffffffffff168152602001600060ff168152602001600060ff1681526020016000801916815260200160608152602001600073ffffffffffffffffffffffffffffffffffffffff16815260200160008152602001606081525090565b61155e91905b8082111561155a576000816000905550600101611542565b5090565b90565b60008135905061157081612017565b92915050565b6000815190506115858161202e565b92915050565b60008135905061159a81612045565b92915050565b60008083601f8401126115b257600080fd5b8235905067ffffffffffffffff8111156115cb57600080fd5b6020830191508360018202830111156115e357600080fd5b9250929050565b600082601f8301126115fb57600080fd5b815161160e61160982611ea9565b611e7c565b9150808252602083016020830185838301111561162a57600080fd5b611635838284611fd3565b50505092915050565b60008135905061164d8161205c565b92915050565b60008135905061166281612073565b92915050565b6000813590506116778161208a565b92915050565b60006020828403121561168f57600080fd5b600061169d84828501611561565b91505092915050565b6000806000606084860312156116bb57600080fd5b60006116c986828701611561565b93505060206116da86828701611561565b92505060406116eb8682870161163e565b9150509250925092565b60006020828403121561170757600080fd5b600061171584828501611576565b91505092915050565b60006020828403121561173057600080fd5b600061173e8482850161158b565b91505092915050565b6000806040838503121561175a57600080fd5b60006117688582860161158b565b925050602061177985828601611561565b9150509250929050565b60008060006040848603121561179857600080fd5b60006117a68682870161158b565b935050602084013567ffffffffffffffff8111156117c357600080fd5b6117cf868287016115a0565b92509250509250925092565b60008060008060008060a087890312156117f457600080fd5b600061180289828a0161158b565b965050602061181389828a01611668565b955050604061182489828a01611653565b945050606061183589828a01611561565b935050608087013567ffffffffffffffff81111561185257600080fd5b61185e89828a016115a0565b92509250509295509295509295565b60006020828403121561187f57600080fd5b600082015167ffffffffffffffff81111561189957600080fd5b6118a5848285016115ea565b91505092915050565b600080604083850312156118c157600080fd5b60006118cf85828601611653565b92505060206118e085828601611668565b9150509250929050565b600080604083850312156118fd57600080fd5b600061190b85828601611668565b925050602061191c85828601611653565b9150509250929050565b61192f81611f34565b82525050565b61193e81611f34565b82525050565b61194d81611f46565b82525050565b61195c81611f52565b82525050565b61196b81611f52565b82525050565b61197a81611f5c565b82525050565b600061198b82611ee0565b6119958185611f18565b93506119a5818560208601611fd3565b80840191505092915050565b60006119bc82611ed5565b6119c68185611ef6565b93506119d6818560208601611fd3565b6119df81612006565b840191505092915050565b60006119f582611ed5565b6119ff8185611f07565b9350611a0f818560208601611fd3565b611a1881612006565b840191505092915050565b6000611a2e82611eeb565b611a388185611f23565b9350611a48818560208601611fd3565b611a5181612006565b840191505092915050565b6000611a69601e83611f23565b91507f73656e646572206d7573742062652062726964676520636f6e747261637400006000830152602082019050919050565b6000611aa9602483611f23565b91507f70726f766964656420636f6e7472616374206973206e6f742077686974656c6960008301527f73746564000000000000000000000000000000000000000000000000000000006020830152604082019050919050565b6000611b0f602883611f23565b91507f70726f766964656420746f6b656e41646472657373206973206e6f742077686960008301527f74656c69737465640000000000000000000000000000000000000000000000006020830152604082019050919050565b600061010083016000830151611b816000860182611926565b506020830151611b946020860182611c3d565b506040830151611ba76040860182611c3d565b506060830151611bba6060860182611953565b5060808301518482036080860152611bd282826119b1565b91505060a0830151611be760a0860182611926565b5060c0830151611bfa60c0860182611c1f565b5060e083015184820360e0860152611c1282826119b1565b9150508091505092915050565b611c2881611fa8565b82525050565b611c3781611fa8565b82525050565b611c4681611fc6565b82525050565b611c5581611fc6565b82525050565b6000611c678284611980565b915081905092915050565b6000602082019050611c876000830184611935565b92915050565b6000606082019050611ca26000830186611935565b611caf6020830185611935565b611cbc6040830184611c2e565b949350505050565b6000606082019050611cd96000830186611935565b611ce66020830185611c2e565b8181036040830152611cf88184611a23565b9050949350505050565b600061010082019050611d18600083018b611935565b611d25602083018a611c4c565b611d326040830189611c4c565b611d3f6060830188611962565b8181036080830152611d5181876119ea565b9050611d6060a0830186611935565b611d6d60c0830185611c2e565b81810360e0830152611d7f81846119ea565b90509998505050505050505050565b6000602082019050611da36000830184611944565b92915050565b6000602082019050611dbe6000830184611962565b92915050565b6000602082019050611dd96000830184611971565b92915050565b60006020820190508181036000830152611df881611a5c565b9050919050565b60006020820190508181036000830152611e1881611a9c565b9050919050565b60006020820190508181036000830152611e3881611b02565b9050919050565b60006020820190508181036000830152611e598184611b68565b905092915050565b6000602082019050611e766000830184611c2e565b92915050565b6000604051905081810181811067ffffffffffffffff82111715611e9f57600080fd5b8060405250919050565b600067ffffffffffffffff821115611ec057600080fd5b601f19601f8301169050602081019050919050565b600081519050919050565b600081519050919050565b600081519050919050565b600082825260208201905092915050565b600082825260208201905092915050565b600081905092915050565b600082825260208201905092915050565b6000611f3f82611f88565b9050919050565b60008115159050919050565b6000819050919050565b60007fffffffff0000000000000000000000000000000000000000000000000000000082169050919050565b600073ffffffffffffffffffffffffffffffffffffffff82169050919050565b6000819050919050565b600067ffffffffffffffff82169050919050565b600060ff82169050919050565b60005b83811015611ff1578082015181840152602081019050611fd6565b83811115612000576000848401525b50505050565b6000601f19601f8301169050919050565b61202081611f34565b811461202b57600080fd5b50565b61203781611f46565b811461204257600080fd5b50565b61204e81611f52565b811461205957600080fd5b50565b61206581611fa8565b811461207057600080fd5b50565b61207c81611fb2565b811461208757600080fd5b50565b61209381611fc6565b811461209e57600080fd5b5056fea26469706673582212202f1ae5927302c8a5ada95f61727a28165e5a4091ed81d976488293a4538d953b64736f6c63430006040033",
  "source": "pragma solidity 0.6.4;\npragma experimental ABIEncoderV2;\n\nimport \"../interfaces/IDepositExecute.sol\";\nimport \"./HandlerHelpers.sol\";\nimport \"../ERC721Safe.sol\";\nimport \"../ERC721MinterBurnerPauser.sol\";\nimport \"@openzeppelin/contracts/introspection/ERC165Checker.sol\";\nimport \"@openzeppelin/contracts/token/ERC721/IERC721Metadata.sol\";\n\n\n/**\n    @title Handles ERC721 deposits and deposit executions.\n    @author ChainSafe Systems.\n    @notice This contract is intended to be used with the Bridge contract.\n */\ncontract ERC721Handler is IDepositExecute, HandlerHelpers, ERC721Safe {\n    using ERC165Checker for address;\n\n    bytes4 private constant _INTERFACE_ERC721_METADATA = 0x5b5e139f;\n\n    struct DepositRecord {\n        address _tokenAddress;\n        uint8    _lenDestinationRecipientAddress;\n        uint8   _destinationChainID;\n        bytes32 _resourceID;\n        bytes   _destinationRecipientAddress;\n        address _depositer;\n        uint    _tokenID;\n        bytes   _metaData;\n    }\n\n    // DepositNonce => Deposit Record\n    mapping (uint8 => mapping (uint64 => DepositRecord)) public _depositRecords;\n\n    /**\n        @param bridgeAddress Contract address of previously deployed Bridge.\n        @param initialResourceIDs Resource IDs are used to identify a specific contract address.\n        These are the Resource IDs this contract will initially support.\n        @param initialContractAddresses These are the addresses the {initialResourceIDs} will point to, and are the contracts that will be\n        called to perform various deposit calls.\n        @param burnableContractAddresses These addresses will be set as burnable and when {deposit} is called, the deposited token will be burned.\n        When {executeProposal} is called, new tokens will be minted.\n\n        @dev {initialResourceIDs} and {initialContractAddresses} must have the same length (one resourceID for every address).\n        Also, these arrays must be ordered in the way that {initialResourceIDs}[0] is the intended resourceID for {initialContractAddresses}[0].\n     */\n    constructor(\n        address bridgeAddress,\n        bytes32[] memory initialResourceIDs,\n        address[] memory initialContractAddresses,\n        address[] memory burnableContractAddresses\n    ) public {\n        require(initialResourceIDs.length == initialContractAddresses.length,\n            \"initialResourceIDs and initialContractAddresses len mismatch\");\n\n        _bridgeAddress = bridgeAddress;\n\n        for (uint256 i = 0; i < initialResourceIDs.length; i++) {\n            _setResource(initialResourceIDs[i], initialContractAddresses[i]);\n        }\n\n        for (uint256 i = 0; i < burnableContractAddresses.length; i++) {\n            _setBurnable(burnableContractAddresses[i]);\n        }\n    }\n\n    /**\n        @param depositNonce This ID will have been generated by the Bridge contract.\n        @param destId ID of chain deposit will be bridged to.\n        @return DepositRecord which consists of:\n        - _tokenAddress Address used when {deposit} was executed.\n        - _destinationChainID ChainID deposited tokens are intended to end up on.\n        - _resourceID ResourceID used when {deposit} was executed.\n        - _lenDestinationRecipientAddress Used to parse recipient's address from {_destinationRecipientAddress}\n        - _destinationRecipientAddress Address tokens are intended to be deposited to on desitnation chain.\n        - _depositer Address that initially called {deposit} in the Bridge contract.\n        - _tokenID ID of ERC721.\n        - _metaData Optional ERC721 metadata.\n    */\n    function getDepositRecord(uint64 depositNonce, uint8 destId) external view returns (DepositRecord memory) {\n        return _depositRecords[destId][depositNonce];\n    }\n\n    /**\n        @notice A deposit is initiatied by making a deposit in the Bridge contract.\n        @param destinationChainID Chain ID of chain token is expected to be bridged to.\n        @param depositNonce This value is generated as an ID by the Bridge contract.\n        @param depositer Address of account making the deposit in the Bridge contract.\n        @param data Consists of: {resourceID}, {tokenID}, {lenDestinationRecipientAddress},\n        and {destinationRecipientAddress} all padded to 32 bytes.\n        @notice Data passed into the function should be constructed as follows:\n        tokenID                                     uint256    bytes    0  - 32\n        destinationRecipientAddress     length      uint256    bytes    32 - 64\n        destinationRecipientAddress                   bytes    bytes    64 - (64 + len(destinationRecipientAddress))\n        @notice If the corresponding {tokenAddress} for the parsed {resourceID} supports {_INTERFACE_ERC721_METADATA},\n        then {metaData} will be set according to the {tokenURI} method in the token contract.\n        @dev Depending if the corresponding {tokenAddress} for the parsed {resourceID} is\n        marked true in {_burnList}, deposited tokens will be burned, if not, they will be locked.\n     */\n    function deposit(bytes32    resourceID,\n                    uint8       destinationChainID,\n                    uint64      depositNonce,\n                    address     depositer,\n                    bytes       calldata data\n                    ) external override onlyBridge {\n        uint         lenDestinationRecipientAddress;\n        uint         tokenID;\n        bytes memory destinationRecipientAddress;\n        bytes memory metaData;\n\n        assembly {\n\n            // Load tokenID from data + 32\n            tokenID := calldataload(0xC4)\n\n            // Load length of recipient address from data + 96\n            lenDestinationRecipientAddress := calldataload(0xE4)\n            // Load free mem pointer for recipient\n            destinationRecipientAddress := mload(0x40)\n            // Store recipient address\n            mstore(0x40, add(0x20, add(destinationRecipientAddress, lenDestinationRecipientAddress)))\n\n            // func sig (4) + destinationChainId (padded to 32) + depositNonce (32) + depositor (32) +\n            // bytes lenght (32) + resourceId (32) + tokenId (32) + length (32) = 0xE4\n\n            calldatacopy(\n                destinationRecipientAddress,    // copy to destinationRecipientAddress\n                0xE4,                           // copy from calldata after destinationRecipientAddress length declaration @0xE4\n                sub(calldatasize(), 0xE4)       // copy size (calldatasize - (0xE4 + 0x20))\n            )\n        }\n\n        address tokenAddress = _resourceIDToTokenContractAddress[resourceID];\n        require(_contractWhitelist[tokenAddress], \"provided tokenAddress is not whitelisted\");\n\n        // Check if the contract supports metadata, fetch it if it does\n        if (tokenAddress.supportsInterface(_INTERFACE_ERC721_METADATA)) {\n            IERC721Metadata erc721 = IERC721Metadata(tokenAddress);\n            metaData = bytes(erc721.tokenURI(tokenID));\n        }\n\n        if (_burnList[tokenAddress]) {\n            burnERC721(tokenAddress, tokenID);\n        } else {\n            lockERC721(tokenAddress, depositer, address(this), tokenID);\n        }\n\n        _depositRecords[destinationChainID][depositNonce] = DepositRecord(\n            tokenAddress,\n            uint8(lenDestinationRecipientAddress),\n            uint8(destinationChainID),\n            resourceID,\n            destinationRecipientAddress,\n            depositer,\n            tokenID,\n            metaData\n        );\n    }\n\n    /**\n        @notice Proposal execution should be initiated when a proposal is finalized in the Bridge contract.\n        by a relayer on the deposit's destination chain.\n        @param data Consists of {tokenID}, {resourceID}, {lenDestinationRecipientAddress},\n        {destinationRecipientAddress}, {lenMeta}, and {metaData} all padded to 32 bytes.\n        @notice Data passed into the function should be constructed as follows:\n        tokenID                                     uint256    bytes    0  - 32\n        destinationRecipientAddress     length      uint256    bytes    32 - 64\n        destinationRecipientAddress                   bytes    bytes    64 - (64 + len(destinationRecipientAddress))\n        metadata                        length      uint256    bytes    (64 + len(destinationRecipientAddress)) - (64 + len(destinationRecipientAddress) + 32)\n        metadata                                      bytes    bytes    (64 + len(destinationRecipientAddress) + 32) - END\n     */\n    function executeProposal(bytes32 resourceID, bytes calldata data) external override onlyBridge {\n        uint256         tokenID;\n        bytes  memory   destinationRecipientAddress;\n        bytes  memory   metaData;\n\n        assembly {\n            tokenID    := calldataload(0x64)\n\n\n            // set up destinationRecipientAddress\n            destinationRecipientAddress        := mload(0x40)              // load free memory pointer\n            let lenDestinationRecipientAddress := calldataload(0x84)\n\n            // set up metaData\n            // 0xA4 is a combination of 0x24 (position of {data} in calldata) and\n            // 0x80 is the relative position of the {metadata} length in {data}\n            let lenMeta := calldataload(add(0xA4, lenDestinationRecipientAddress))\n\n            mstore(0x40, add(0x40, add(destinationRecipientAddress, lenDestinationRecipientAddress))) // shift free memory pointer\n\n            calldatacopy(\n                destinationRecipientAddress,                             // copy to destinationRecipientAddress\n                0x84,                                                    // copy from calldata after destinationRecipientAddress length declaration @0x84\n                sub(calldatasize(), add(0x84, add(0x20, lenMeta)))       // copy size (calldatasize - (0xC4 + the space metaData takes up))\n            )\n\n            // metadata has variable length\n            // load free memory pointer to store metadata\n            metaData := mload(0x40)\n\n            // incrementing free memory pointer\n            mstore(0x40, add(0x40, add(metaData, lenMeta)))\n\n            // metadata is located at (0x84 + 0x20 + lenDestinationRecipientAddress) in calldata\n            let metaDataLoc := add(0xA4, lenDestinationRecipientAddress)\n\n            // in the calldata, metadata is stored @0x124 after accounting for function signature and the depositNonce\n            calldatacopy(\n                metaData,                           // copy to metaData\n                metaDataLoc,                       // copy from calldata after metaData length declaration\n                sub(calldatasize(), metaDataLoc)   // copy size (calldatasize - metaDataLoc)\n            )\n        }\n\n        bytes20 recipientAddress;\n\n        assembly {\n            recipientAddress := mload(add(destinationRecipientAddress, 0x20))\n        }\n\n        address tokenAddress = _resourceIDToTokenContractAddress[resourceID];\n        require(_contractWhitelist[address(tokenAddress)], \"provided tokenAddress is not whitelisted\");\n\n        if (_burnList[tokenAddress]) {\n            mintERC721(tokenAddress, address(recipientAddress), tokenID, metaData);\n        } else {\n            releaseERC721(tokenAddress, address(this), address(recipientAddress), tokenID);\n        }\n    }\n\n    /**\n        @notice Used to manually release ERC721 tokens from ERC721Safe.\n        @param tokenAddress Address of token contract to release.\n        @param recipient Address to release token to.\n        @param tokenID The ERC721 token ID to release.\n     */\n    function withdraw(address tokenAddress, address recipient, uint tokenID) external override onlyBridge {\n        releaseERC721(tokenAddress, address(this), recipient, tokenID);\n    }\n}\n",
  "sourcePath": "/home/saadjhk/Desktop/chainbridge-solidity/contracts/handlers/ERC721Handler.sol",
  "compiler": {
    "name": "solc",
    "version": "0.6.4+commit.1dca32f3.Emscripten.clang"
  },
  "schemaVersion": "3.3.3",
  "updatedAt": "2021-04-22T06:05:54.790Z",
  "devdoc": {
    "author": "ChainSafe Systems.",
    "methods": {
      "constructor": {
        "details": "{initialResourceIDs} and {initialContractAddresses} must have the same length (one resourceID for every address). Also, these arrays must be ordered in the way that {initialResourceIDs}[0] is the intended resourceID for {initialContractAddresses}[0].",
        "params": {
          "bridgeAddress": "Contract address of previously deployed Bridge.",
          "burnableContractAddresses": "These addresses will be set as burnable and when {deposit} is called, the deposited token will be burned. When {executeProposal} is called, new tokens will be minted.",
          "initialContractAddresses": "These are the addresses the {initialResourceIDs} will point to, and are the contracts that will be called to perform various deposit calls.",
          "initialResourceIDs": "Resource IDs are used to identify a specific contract address. These are the Resource IDs this contract will initially support."
        }
      },
      "deposit(bytes32,uint8,uint64,address,bytes)": {
        "details": "Depending if the corresponding {tokenAddress} for the parsed {resourceID} is marked true in {_burnList}, deposited tokens will be burned, if not, they will be locked.",
        "params": {
          "data": "Consists of: {resourceID}, {tokenID}, {lenDestinationRecipientAddress}, and {destinationRecipientAddress} all padded to 32 bytes.",
          "depositNonce": "This value is generated as an ID by the Bridge contract.",
          "depositer": "Address of account making the deposit in the Bridge contract.",
          "destinationChainID": "Chain ID of chain token is expected to be bridged to."
        }
      },
      "executeProposal(bytes32,bytes)": {
        "params": {
          "data": "Consists of {tokenID}, {resourceID}, {lenDestinationRecipientAddress}, {destinationRecipientAddress}, {lenMeta}, and {metaData} all padded to 32 bytes."
        }
      },
      "fundERC721(address,address,uint256)": {
        "params": {
          "owner": "Address of current token owner.",
          "tokenAddress": "Address of ERC721 to transfer.",
          "tokenID": "ID of token to transfer."
        }
      },
      "getDepositRecord(uint64,uint8)": {
        "params": {
          "depositNonce": "This ID will have been generated by the Bridge contract.",
          "destId": "ID of chain deposit will be bridged to."
        },
        "returns": {
          "_0": "DepositRecord which consists of: - _tokenAddress Address used when {deposit} was executed. - _destinationChainID ChainID deposited tokens are intended to end up on. - _resourceID ResourceID used when {deposit} was executed. - _lenDestinationRecipientAddress Used to parse recipient's address from {_destinationRecipientAddress} - _destinationRecipientAddress Address tokens are intended to be deposited to on desitnation chain. - _depositer Address that initially called {deposit} in the Bridge contract. - _tokenID ID of ERC721. - _metaData Optional ERC721 metadata."
        }
      },
      "setBurnable(address)": {
        "params": {
          "contractAddress": "Address of contract to be used when making or executing deposits."
        }
      },
      "setResource(bytes32,address)": {
        "params": {
          "contractAddress": "Address of contract to be called when a deposit is made and a deposited is executed.",
          "resourceID": "ResourceID to be used when making deposits."
        }
      },
      "withdraw(address,address,uint256)": {
        "params": {
          "recipient": "Address to release token to.",
          "tokenAddress": "Address of token contract to release.",
          "tokenID": "The ERC721 token ID to release."
        }
      }
    },
    "title": "Handles ERC721 deposits and deposit executions."
  },
  "userdoc": {
    "methods": {
      "deposit(bytes32,uint8,uint64,address,bytes)": {
        "notice": "A deposit is initiatied by making a deposit in the Bridge contract.Data passed into the function should be constructed as follows: tokenID                                     uint256    bytes    0  - 32 destinationRecipientAddress     length      uint256    bytes    32 - 64 destinationRecipientAddress                   bytes    bytes    64 - (64 + len(destinationRecipientAddress))If the corresponding {tokenAddress} for the parsed {resourceID} supports {_INTERFACE_ERC721_METADATA}, then {metaData} will be set according to the {tokenURI} method in the token contract."
      },
      "executeProposal(bytes32,bytes)": {
        "notice": "Proposal execution should be initiated when a proposal is finalized in the Bridge contract. by a relayer on the deposit's destination chain.Data passed into the function should be constructed as follows: tokenID                                     uint256    bytes    0  - 32 destinationRecipientAddress     length      uint256    bytes    32 - 64 destinationRecipientAddress                   bytes    bytes    64 - (64 + len(destinationRecipientAddress)) metadata                        length      uint256    bytes    (64 + len(destinationRecipientAddress)) - (64 + len(destinationRecipientAddress) + 32) metadata                                      bytes    bytes    (64 + len(destinationRecipientAddress) + 32) - END"
      },
      "fundERC721(address,address,uint256)": {
        "notice": "Used to transfer tokens into the safe to fund proposals."
      },
      "setBurnable(address)": {
        "notice": "First verifies {contractAddress} is whitelisted, then sets {_burnList}[{contractAddress}] to true."
      },
      "setResource(bytes32,address)": {
        "notice": "First verifies {_resourceIDToContractAddress}[{resourceID}] and {_contractAddressToResourceID}[{contractAddress}] are not already set, then sets {_resourceIDToContractAddress} with {contractAddress}, {_contractAddressToResourceID} with {resourceID}, and {_contractWhitelist} to true for {contractAddress}."
      },
      "withdraw(address,address,uint256)": {
        "notice": "Used to manually release ERC721 tokens from ERC721Safe."
      }
    },
    "notice": "This contract is intended to be used with the Bridge contract."
  }
}