{
  "contractName": "HandlerHelpers",
  "abi": [
    {
      "inputs": [],
      "name": "_bridgeAddress",
      "outputs": [
        {
          "internalType": "address",
          "name": "",
          "type": "address"
        }
      ],
      "stateMutability": "view",
      "type": "function"
    },
    {
      "inputs": [
        {
          "internalType": "address",
          "name": "",
          "type": "address"
        }
      ],
      "name": "_burnList",
      "outputs": [
        {
          "internalType": "bool",
          "name": "",
          "type": "bool"
        }
      ],
      "stateMutability": "view",
      "type": "function"
    },
    {
      "inputs": [
        {
          "internalType": "address",
          "name": "",
          "type": "address"
        }
      ],
      "name": "_contractWhitelist",
      "outputs": [
        {
          "internalType": "bool",
          "name": "",
          "type": "bool"
        }
      ],
      "stateMutability": "view",
      "type": "function"
    },
    {
      "inputs": [
        {
          "internalType": "bytes32",
          "name": "",
          "type": "bytes32"
        }
      ],
      "name": "_resourceIDToTokenContractAddress",
      "outputs": [
        {
          "internalType": "address",
          "name": "",
          "type": "address"
        }
      ],
      "stateMutability": "view",
      "type": "function"
    },
    {
      "inputs": [
        {
          "internalType": "address",
          "name": "",
          "type": "address"
        }
      ],
      "name": "_tokenContractAddressToResourceID",
      "outputs": [
        {
          "internalType": "bytes32",
          "name": "",
          "type": "bytes32"
        }
      ],
      "stateMutability": "view",
      "type": "function"
    },
    {
      "inputs": [
        {
          "internalType": "bytes32",
          "name": "resourceID",
          "type": "bytes32"
        },
        {
          "internalType": "address",
          "name": "contractAddress",
          "type": "address"
        }
      ],
      "name": "setResource",
      "outputs": [],
      "stateMutability": "nonpayable",
      "type": "function"
    },
    {
      "inputs": [
        {
          "internalType": "address",
          "name": "contractAddress",
          "type": "address"
        }
      ],
      "name": "setBurnable",
      "outputs": [],
      "stateMutability": "nonpayable",
      "type": "function"
    },
    {
      "inputs": [
        {
          "internalType": "address",
          "name": "tokenAddress",
          "type": "address"
        },
        {
          "internalType": "address",
          "name": "recipient",
          "type": "address"
        },
        {
          "internalType": "uint256",
          "name": "amountOrTokenID",
          "type": "uint256"
        }
      ],
      "name": "withdraw",
      "outputs": [],
      "stateMutability": "nonpayable",
      "type": "function"
    }
  ],
  "bytecode": "0x608060405234801561001057600080fd5b50610741806100206000396000f3fe608060405234801561001057600080fd5b50600436106100885760003560e01c80637f79bea81161005b5780637f79bea8146101e5578063b8fa373614610241578063c8ba6c871461028f578063d9caed12146102e757610088565b806307b7ed991461008d5780630a6d55d8146100d1578063318c136e1461013f5780636a70d08114610189575b600080fd5b6100cf600480360360208110156100a357600080fd5b81019080803573ffffffffffffffffffffffffffffffffffffffff169060200190929190505050610355565b005b6100fd600480360360208110156100e757600080fd5b8101908080359060200190929190505050610369565b604051808273ffffffffffffffffffffffffffffffffffffffff1673ffffffffffffffffffffffffffffffffffffffff16815260200191505060405180910390f35b61014761039c565b604051808273ffffffffffffffffffffffffffffffffffffffff1673ffffffffffffffffffffffffffffffffffffffff16815260200191505060405180910390f35b6101cb6004803603602081101561019f57600080fd5b81019080803573ffffffffffffffffffffffffffffffffffffffff1690602001909291905050506103c1565b604051808215151515815260200191505060405180910390f35b610227600480360360208110156101fb57600080fd5b81019080803573ffffffffffffffffffffffffffffffffffffffff1690602001909291905050506103e1565b604051808215151515815260200191505060405180910390f35b61028d6004803603604081101561025757600080fd5b8101908080359060200190929190803573ffffffffffffffffffffffffffffffffffffffff169060200190929190505050610401565b005b6102d1600480360360208110156102a557600080fd5b81019080803573ffffffffffffffffffffffffffffffffffffffff169060200190929190505050610417565b6040518082815260200191505060405180910390f35b610353600480360360608110156102fd57600080fd5b81019080803573ffffffffffffffffffffffffffffffffffffffff169060200190929190803573ffffffffffffffffffffffffffffffffffffffff1690602001909291908035906020019092919050505061042f565b005b61035d610434565b610366816104f8565b50565b60016020528060005260406000206000915054906101000a900473ffffffffffffffffffffffffffffffffffffffff1681565b6000809054906101000a900473ffffffffffffffffffffffffffffffffffffffff1681565b60046020528060005260406000206000915054906101000a900460ff1681565b60036020528060005260406000206000915054906101000a900460ff1681565b610409610434565b61041382826105f5565b5050565b60026020528060005260406000206000915090505481565b505050565b6000809054906101000a900473ffffffffffffffffffffffffffffffffffffffff1673ffffffffffffffffffffffffffffffffffffffff163373ffffffffffffffffffffffffffffffffffffffff16146104f6576040517f08c379a000000000000000000000000000000000000000000000000000000000815260040180806020018281038252601e8152602001807f73656e646572206d7573742062652062726964676520636f6e7472616374000081525060200191505060405180910390fd5b565b600360008273ffffffffffffffffffffffffffffffffffffffff1673ffffffffffffffffffffffffffffffffffffffff16815260200190815260200160002060009054906101000a900460ff1661059a576040517f08c379a00000000000000000000000000000000000000000000000000000000081526004018080602001828103825260248152602001806106e86024913960400191505060405180910390fd5b6001600460008373ffffffffffffffffffffffffffffffffffffffff1673ffffffffffffffffffffffffffffffffffffffff16815260200190815260200160002060006101000a81548160ff02191690831515021790555050565b806001600084815260200190815260200160002060006101000a81548173ffffffffffffffffffffffffffffffffffffffff021916908373ffffffffffffffffffffffffffffffffffffffff16021790555081600260008373ffffffffffffffffffffffffffffffffffffffff1673ffffffffffffffffffffffffffffffffffffffff168152602001908152602001600020819055506001600360008373ffffffffffffffffffffffffffffffffffffffff1673ffffffffffffffffffffffffffffffffffffffff16815260200190815260200160002060006101000a81548160ff021916908315150217905550505056fe70726f766964656420636f6e7472616374206973206e6f742077686974656c6973746564a2646970667358221220eace698d25628626bbf6954f143d5af3642121883c85ed461dbd96be905704db64736f6c63430006040033",
  "source": "pragma solidity 0.6.4;\n\nimport \"../interfaces/IERCHandler.sol\";\n\n/**\n    @title Function used across handler contracts.\n    @author ChainSafe Systems.\n    @notice This contract is intended to be used with the Bridge contract.\n */\ncontract HandlerHelpers is IERCHandler {\n    address public _bridgeAddress;\n\n    // resourceID => token contract address\n    mapping (bytes32 => address) public _resourceIDToTokenContractAddress;\n\n    // token contract address => resourceID\n    mapping (address => bytes32) public _tokenContractAddressToResourceID;\n\n    // token contract address => is whitelisted\n    mapping (address => bool) public _contractWhitelist;\n\n    // token contract address => is burnable\n    mapping (address => bool) public _burnList;\n\n    modifier onlyBridge() {\n        _onlyBridge();\n        _;\n    }\n\n    function _onlyBridge() private {\n        require(msg.sender == _bridgeAddress, \"sender must be bridge contract\");\n    }\n\n    /**\n        @notice First verifies {_resourceIDToContractAddress}[{resourceID}] and\n        {_contractAddressToResourceID}[{contractAddress}] are not already set,\n        then sets {_resourceIDToContractAddress} with {contractAddress},\n        {_contractAddressToResourceID} with {resourceID},\n        and {_contractWhitelist} to true for {contractAddress}.\n        @param resourceID ResourceID to be used when making deposits.\n        @param contractAddress Address of contract to be called when a deposit is made and a deposited is executed.\n     */\n    function setResource(bytes32 resourceID, address contractAddress) external override onlyBridge {\n\n        _setResource(resourceID, contractAddress);\n    }\n\n    /**\n        @notice First verifies {contractAddress} is whitelisted, then sets {_burnList}[{contractAddress}]\n        to true.\n        @param contractAddress Address of contract to be used when making or executing deposits.\n     */\n    function setBurnable(address contractAddress) external override onlyBridge{\n        _setBurnable(contractAddress);\n    }\n\n    /**\n        @notice Used to manually release funds from ERC safes.\n        @param tokenAddress Address of token contract to release.\n        @param recipient Address to release tokens to.\n        @param amountOrTokenID Either the amount of ERC20 tokens or the ERC721 token ID to release.\n     */\n    function withdraw(address tokenAddress, address recipient, uint256 amountOrTokenID) external virtual override {}\n\n    function _setResource(bytes32 resourceID, address contractAddress) internal {\n        _resourceIDToTokenContractAddress[resourceID] = contractAddress;\n        _tokenContractAddressToResourceID[contractAddress] = resourceID;\n\n        _contractWhitelist[contractAddress] = true;\n    }\n\n    function _setBurnable(address contractAddress) internal {\n        require(_contractWhitelist[contractAddress], \"provided contract is not whitelisted\");\n        _burnList[contractAddress] = true;\n    }\n}\n",
  "sourcePath": "/home/saadjhk/Desktop/chainbridge-solidity/contracts/handlers/HandlerHelpers.sol",
  "compiler": {
    "name": "solc",
    "version": "0.6.4+commit.1dca32f3.Emscripten.clang"
  },
  "schemaVersion": "3.3.3",
  "updatedAt": "2021-04-22T06:05:54.803Z",
  "devdoc": {
    "author": "ChainSafe Systems.",
    "methods": {
      "setBurnable(address)": {
        "params": {
          "contractAddress": "Address of contract to be used when making or executing deposits."
        }
      },
      "setResource(bytes32,address)": {
        "params": {
          "contractAddress": "Address of contract to be called when a deposit is made and a deposited is executed.",
          "resourceID": "ResourceID to be used when making deposits."
        }
      },
      "withdraw(address,address,uint256)": {
        "params": {
          "amountOrTokenID": "Either the amount of ERC20 tokens or the ERC721 token ID to release.",
          "recipient": "Address to release tokens to.",
          "tokenAddress": "Address of token contract to release."
        }
      }
    },
    "title": "Function used across handler contracts."
  },
  "userdoc": {
    "methods": {
      "setBurnable(address)": {
        "notice": "First verifies {contractAddress} is whitelisted, then sets {_burnList}[{contractAddress}] to true."
      },
      "setResource(bytes32,address)": {
        "notice": "First verifies {_resourceIDToContractAddress}[{resourceID}] and {_contractAddressToResourceID}[{contractAddress}] are not already set, then sets {_resourceIDToContractAddress} with {contractAddress}, {_contractAddressToResourceID} with {resourceID}, and {_contractWhitelist} to true for {contractAddress}."
      },
      "withdraw(address,address,uint256)": {
        "notice": "Used to manually release funds from ERC safes."
      }
    },
    "notice": "This contract is intended to be used with the Bridge contract."
  }
}