{
  "contractName": "MintableCoinFactory",
  "abi": [
    {
      "inputs": [],
      "stateMutability": "nonpayable",
      "type": "constructor"
    },
    {
      "anonymous": false,
      "inputs": [
        {
          "indexed": false,
          "internalType": "address",
          "name": "newERC20Address",
          "type": "address"
        }
      ],
      "name": "MintableERC20Created",
      "type": "event"
    },
    {
      "inputs": [],
      "name": "mintableERC20Address",
      "outputs": [
        {
          "internalType": "address",
          "name": "",
          "type": "address"
        }
      ],
      "stateMutability": "view",
      "type": "function"
    },
    {
      "inputs": [
        {
          "internalType": "string",
          "name": "name",
          "type": "string"
        },
        {
          "internalType": "string",
          "name": "symbol",
          "type": "string"
        },
        {
          "internalType": "uint8",
          "name": "decimals",
          "type": "uint8"
        }
      ],
      "name": "createERC20Mintable",
      "outputs": [
        {
          "internalType": "address",
          "name": "",
          "type": "address"
        }
      ],
      "stateMutability": "nonpayable",
      "type": "function"
    },
    {
      "inputs": [
        {
          "internalType": "address",
          "name": "contractAddr",
          "type": "address"
        }
      ],
      "name": "setMintableContractAddress",
      "outputs": [],
      "stateMutability": "nonpayable",
      "type": "function"
    }
  ],
  "bytecode": "0x608060405234801561001057600080fd5b50610549806100206000396000f3fe608060405234801561001057600080fd5b50600436106100415760003560e01c80631350b77e14610046578063f79a3b691461007a578063ffadc65114610203575b600080fd5b61004e610247565b604051808273ffffffffffffffffffffffffffffffffffffffff16815260200191505060405180910390f35b6101d76004803603606081101561009057600080fd5b81019080803590602001906401000000008111156100ad57600080fd5b8201836020820111156100bf57600080fd5b803590602001918460018302840111640100000000831117156100e157600080fd5b91908080601f016020809104026020016040519081016040528093929190818152602001838380828437600081840152601f19601f8201169050808301925050505050505091929192908035906020019064010000000081111561014457600080fd5b82018360208201111561015657600080fd5b8035906020019184600183028401116401000000008311171561017857600080fd5b91908080601f016020809104026020016040519081016040528093929190818152602001838380828437600081840152601f19601f820116905080830192505050505050509192919290803560ff16906020019092919050505061026b565b604051808273ffffffffffffffffffffffffffffffffffffffff16815260200191505060405180910390f35b6102456004803603602081101561021957600080fd5b81019080803573ffffffffffffffffffffffffffffffffffffffff16906020019092919050505061045e565b005b60008054906101000a900473ffffffffffffffffffffffffffffffffffffffff1681565b60008061029760008054906101000a900473ffffffffffffffffffffffffffffffffffffffff166104a1565b90508073ffffffffffffffffffffffffffffffffffffffff166317a7f69586866102bf61050b565b876040518563ffffffff1660e01b81526004018080602001806020018573ffffffffffffffffffffffffffffffffffffffff1681526020018460ff168152602001838103835287818151815260200191508051906020019080838360005b8381101561033857808201518184015260208101905061031d565b50505050905090810190601f1680156103655780820380516001836020036101000a031916815260200191505b50838103825286818151815260200191508051906020019080838360005b8381101561039e578082015181840152602081019050610383565b50505050905090810190601f1680156103cb5780820380516001836020036101000a031916815260200191505b509650505050505050600060405180830381600087803b1580156103ee57600080fd5b505af1158015610402573d6000803e3d6000fd5b505050507f9b6fdd4be5acc76c43c87c8b65008f9982fdd25c30b27d2b3271c8696fc928e781604051808273ffffffffffffffffffffffffffffffffffffffff16815260200191505060405180910390a1809150509392505050565b806000806101000a81548173ffffffffffffffffffffffffffffffffffffffff021916908373ffffffffffffffffffffffffffffffffffffffff16021790555050565b6000808260601b90506040517f3d602d80600a3d3981f3363d3d373d3d3d363d7300000000000000000000000081528160148201527f5af43d82803e903d91602b57fd5bf3000000000000000000000000000000000060288201526037816000f092505050919050565b60003390509056fea264697066735822122056ec6759311d22910c88304bbe7ef5470472b3effed2d6a6bd76b72552d6e72964736f6c634300060c0033",
  "immutableReferences": {},
  "source": "pragma solidity 0.6.12;\n\nimport \"./Ownable.sol\";\nimport \"./CloneFactory.sol\";\nimport \"./CloneableMintableERC20.sol\";\nimport \"./Context.sol\";\n\ncontract MintableCoinFactory is CloneFactory, Context {\n    address public mintableERC20Address;\n    event MintableERC20Created(address newERC20Address);\n\n    constructor() public {}\n\n    function createERC20Mintable(string memory name, string memory symbol, uint8 decimals) public returns (address) {\n        address clone = createClone(mintableERC20Address);\n        CloneableMintableERC20(clone).init(name, symbol, _msgSender(), decimals);\n        MintableERC20Created(clone);\n        return clone;\n    }\n\n    function setMintableContractAddress(address contractAddr) public {\n        mintableERC20Address = contractAddr;\n    }\n\n}",
  "sourcePath": "/home/saadjhk/Desktop/bridge/ERC20PresetFactory/contracts/MintableCoinFactory.sol",
  "compiler": {
    "name": "solc",
    "version": "0.6.12+commit.27d51765.Emscripten.clang"
  },
  "schemaVersion": "3.3.3",
  "updatedAt": "2021-04-27T19:30:13.016Z",
  "devdoc": {
    "kind": "dev",
    "methods": {},
    "version": 1
  },
  "userdoc": {
    "kind": "user",
    "methods": {},
    "version": 1
  }
}