{
  "contractName": "OneArgument",
  "abi": [
    {
      "anonymous": false,
      "inputs": [
        {
          "indexed": true,
          "internalType": "uint256",
          "name": "argumentOne",
          "type": "uint256"
        }
      ],
      "name": "OneArgumentCalled",
      "type": "event"
    },
    {
      "inputs": [
        {
          "internalType": "uint256",
          "name": "argumentOne",
          "type": "uint256"
        }
      ],
      "name": "oneArgument",
      "outputs": [],
      "stateMutability": "nonpayable",
      "type": "function"
    }
  ],
  "bytecode": "0x6080604052348015600f57600080fd5b5060be8061001e6000396000f3fe6080604052348015600f57600080fd5b506004361060285760003560e01c8063c95cf0d814602d575b600080fd5b605660048036036020811015604157600080fd5b81019080803590602001909291905050506058565b005b807f29ab08c845830c69b55a1fba5c95718f65dc24361a471e3da14cd5ff2b37315960405160405180910390a25056fea2646970667358221220622a620b37a7fe7c12f396783ff6ac142fe469b0006e66a5a931fb8537f435f564736f6c63430006040033",
  "source": "pragma solidity 0.6.4;\n\ncontract NoArgument {\n    event NoArgumentCalled();\n\n    function noArgument() external {\n        emit NoArgumentCalled();\n    }\n}\n\ncontract OneArgument {\n    event OneArgumentCalled(uint256 indexed argumentOne);\n\n    function oneArgument(uint256 argumentOne) external {\n        emit OneArgumentCalled(argumentOne);\n    }\n}\n\ncontract TwoArguments {\n    event TwoArgumentsCalled(address[] argumentOne, bytes4 argumentTwo);\n\n    function twoArguments(address[] calldata argumentOne, bytes4 argumentTwo) external {\n        emit TwoArgumentsCalled(argumentOne, argumentTwo);\n    }\n}\n\ncontract ThreeArguments {\n    event ThreeArgumentsCalled(string argumentOne, int8 argumentTwo, bool argumentThree);\n\n    function threeArguments(string calldata argumentOne, int8 argumentTwo, bool argumentThree) external {\n        emit ThreeArgumentsCalled(argumentOne, argumentTwo, argumentThree);\n    }\n}\n",
  "sourcePath": "/home/saadjhk/Desktop/dTrade/chainbridge-deploy/cb-sol-cli/chainbridge-solidity/contracts/TestContracts.sol",
  "compiler": {
    "name": "solc",
    "version": "0.6.4+commit.1dca32f3.Emscripten.clang"
  },
  "schemaVersion": "3.1.0",
  "updatedAt": "2021-02-11T12:39:00.927Z",
  "devdoc": {
    "methods": {}
  },
  "userdoc": {
    "methods": {}
  }
}