{
  "contractName": "USDCToken",
  "abi": [
    {
      "inputs": [
        {
          "internalType": "string",
          "name": "name",
          "type": "string"
        },
        {
          "internalType": "string",
          "name": "symbol",
          "type": "string"
        },
        {
          "internalType": "uint256",
          "name": "initialSupply",
          "type": "uint256"
        }
      ],
      "stateMutability": "nonpayable",
      "type": "constructor"
    },
    {
      "anonymous": false,
      "inputs": [
        {
          "indexed": true,
          "internalType": "address",
          "name": "owner",
          "type": "address"
        },
        {
          "indexed": true,
          "internalType": "address",
          "name": "spender",
          "type": "address"
        },
        {
          "indexed": false,
          "internalType": "uint256",
          "name": "value",
          "type": "uint256"
        }
      ],
      "name": "Approval",
      "type": "event"
    },
    {
      "anonymous": false,
      "inputs": [
        {
          "indexed": false,
          "internalType": "address",
          "name": "account",
          "type": "address"
        }
      ],
      "name": "Paused",
      "type": "event"
    },
    {
      "anonymous": false,
      "inputs": [
        {
          "indexed": true,
          "internalType": "bytes32",
          "name": "role",
          "type": "bytes32"
        },
        {
          "indexed": true,
          "internalType": "bytes32",
          "name": "previousAdminRole",
          "type": "bytes32"
        },
        {
          "indexed": true,
          "internalType": "bytes32",
          "name": "newAdminRole",
          "type": "bytes32"
        }
      ],
      "name": "RoleAdminChanged",
      "type": "event"
    },
    {
      "anonymous": false,
      "inputs": [
        {
          "indexed": true,
          "internalType": "bytes32",
          "name": "role",
          "type": "bytes32"
        },
        {
          "indexed": true,
          "internalType": "address",
          "name": "account",
          "type": "address"
        },
        {
          "indexed": true,
          "internalType": "address",
          "name": "sender",
          "type": "address"
        }
      ],
      "name": "RoleGranted",
      "type": "event"
    },
    {
      "anonymous": false,
      "inputs": [
        {
          "indexed": true,
          "internalType": "bytes32",
          "name": "role",
          "type": "bytes32"
        },
        {
          "indexed": true,
          "internalType": "address",
          "name": "account",
          "type": "address"
        },
        {
          "indexed": true,
          "internalType": "address",
          "name": "sender",
          "type": "address"
        }
      ],
      "name": "RoleRevoked",
      "type": "event"
    },
    {
      "anonymous": false,
      "inputs": [
        {
          "indexed": true,
          "internalType": "address",
          "name": "from",
          "type": "address"
        },
        {
          "indexed": true,
          "internalType": "address",
          "name": "to",
          "type": "address"
        },
        {
          "indexed": false,
          "internalType": "uint256",
          "name": "value",
          "type": "uint256"
        }
      ],
      "name": "Transfer",
      "type": "event"
    },
    {
      "anonymous": false,
      "inputs": [
        {
          "indexed": false,
          "internalType": "address",
          "name": "account",
          "type": "address"
        }
      ],
      "name": "Unpaused",
      "type": "event"
    },
    {
      "inputs": [],
      "name": "DEFAULT_ADMIN_ROLE",
      "outputs": [
        {
          "internalType": "bytes32",
          "name": "",
          "type": "bytes32"
        }
      ],
      "stateMutability": "view",
      "type": "function"
    },
    {
      "inputs": [],
      "name": "MINTER_ROLE",
      "outputs": [
        {
          "internalType": "bytes32",
          "name": "",
          "type": "bytes32"
        }
      ],
      "stateMutability": "view",
      "type": "function"
    },
    {
      "inputs": [],
      "name": "PAUSER_ROLE",
      "outputs": [
        {
          "internalType": "bytes32",
          "name": "",
          "type": "bytes32"
        }
      ],
      "stateMutability": "view",
      "type": "function"
    },
    {
      "inputs": [
        {
          "internalType": "address",
          "name": "owner",
          "type": "address"
        },
        {
          "internalType": "address",
          "name": "spender",
          "type": "address"
        }
      ],
      "name": "allowance",
      "outputs": [
        {
          "internalType": "uint256",
          "name": "",
          "type": "uint256"
        }
      ],
      "stateMutability": "view",
      "type": "function"
    },
    {
      "inputs": [
        {
          "internalType": "address",
          "name": "spender",
          "type": "address"
        },
        {
          "internalType": "uint256",
          "name": "amount",
          "type": "uint256"
        }
      ],
      "name": "approve",
      "outputs": [
        {
          "internalType": "bool",
          "name": "",
          "type": "bool"
        }
      ],
      "stateMutability": "nonpayable",
      "type": "function"
    },
    {
      "inputs": [
        {
          "internalType": "address",
          "name": "account",
          "type": "address"
        }
      ],
      "name": "balanceOf",
      "outputs": [
        {
          "internalType": "uint256",
          "name": "",
          "type": "uint256"
        }
      ],
      "stateMutability": "view",
      "type": "function"
    },
    {
      "inputs": [
        {
          "internalType": "uint256",
          "name": "amount",
          "type": "uint256"
        }
      ],
      "name": "burn",
      "outputs": [],
      "stateMutability": "nonpayable",
      "type": "function"
    },
    {
      "inputs": [
        {
          "internalType": "address",
          "name": "account",
          "type": "address"
        },
        {
          "internalType": "uint256",
          "name": "amount",
          "type": "uint256"
        }
      ],
      "name": "burnFrom",
      "outputs": [],
      "stateMutability": "nonpayable",
      "type": "function"
    },
    {
      "inputs": [],
      "name": "decimals",
      "outputs": [
        {
          "internalType": "uint8",
          "name": "",
          "type": "uint8"
        }
      ],
      "stateMutability": "view",
      "type": "function"
    },
    {
      "inputs": [
        {
          "internalType": "address",
          "name": "spender",
          "type": "address"
        },
        {
          "internalType": "uint256",
          "name": "subtractedValue",
          "type": "uint256"
        }
      ],
      "name": "decreaseAllowance",
      "outputs": [
        {
          "internalType": "bool",
          "name": "",
          "type": "bool"
        }
      ],
      "stateMutability": "nonpayable",
      "type": "function"
    },
    {
      "inputs": [
        {
          "internalType": "bytes32",
          "name": "role",
          "type": "bytes32"
        }
      ],
      "name": "getRoleAdmin",
      "outputs": [
        {
          "internalType": "bytes32",
          "name": "",
          "type": "bytes32"
        }
      ],
      "stateMutability": "view",
      "type": "function"
    },
    {
      "inputs": [
        {
          "internalType": "bytes32",
          "name": "role",
          "type": "bytes32"
        },
        {
          "internalType": "uint256",
          "name": "index",
          "type": "uint256"
        }
      ],
      "name": "getRoleMember",
      "outputs": [
        {
          "internalType": "address",
          "name": "",
          "type": "address"
        }
      ],
      "stateMutability": "view",
      "type": "function"
    },
    {
      "inputs": [
        {
          "internalType": "bytes32",
          "name": "role",
          "type": "bytes32"
        }
      ],
      "name": "getRoleMemberCount",
      "outputs": [
        {
          "internalType": "uint256",
          "name": "",
          "type": "uint256"
        }
      ],
      "stateMutability": "view",
      "type": "function"
    },
    {
      "inputs": [
        {
          "internalType": "bytes32",
          "name": "role",
          "type": "bytes32"
        },
        {
          "internalType": "address",
          "name": "account",
          "type": "address"
        }
      ],
      "name": "grantRole",
      "outputs": [],
      "stateMutability": "nonpayable",
      "type": "function"
    },
    {
      "inputs": [
        {
          "internalType": "bytes32",
          "name": "role",
          "type": "bytes32"
        },
        {
          "internalType": "address",
          "name": "account",
          "type": "address"
        }
      ],
      "name": "hasRole",
      "outputs": [
        {
          "internalType": "bool",
          "name": "",
          "type": "bool"
        }
      ],
      "stateMutability": "view",
      "type": "function"
    },
    {
      "inputs": [
        {
          "internalType": "address",
          "name": "spender",
          "type": "address"
        },
        {
          "internalType": "uint256",
          "name": "addedValue",
          "type": "uint256"
        }
      ],
      "name": "increaseAllowance",
      "outputs": [
        {
          "internalType": "bool",
          "name": "",
          "type": "bool"
        }
      ],
      "stateMutability": "nonpayable",
      "type": "function"
    },
    {
      "inputs": [
        {
          "internalType": "address",
          "name": "to",
          "type": "address"
        },
        {
          "internalType": "uint256",
          "name": "amount",
          "type": "uint256"
        }
      ],
      "name": "mint",
      "outputs": [],
      "stateMutability": "nonpayable",
      "type": "function"
    },
    {
      "inputs": [],
      "name": "name",
      "outputs": [
        {
          "internalType": "string",
          "name": "",
          "type": "string"
        }
      ],
      "stateMutability": "view",
      "type": "function"
    },
    {
      "inputs": [],
      "name": "pause",
      "outputs": [],
      "stateMutability": "nonpayable",
      "type": "function"
    },
    {
      "inputs": [],
      "name": "paused",
      "outputs": [
        {
          "internalType": "bool",
          "name": "",
          "type": "bool"
        }
      ],
      "stateMutability": "view",
      "type": "function"
    },
    {
      "inputs": [
        {
          "internalType": "bytes32",
          "name": "role",
          "type": "bytes32"
        },
        {
          "internalType": "address",
          "name": "account",
          "type": "address"
        }
      ],
      "name": "renounceRole",
      "outputs": [],
      "stateMutability": "nonpayable",
      "type": "function"
    },
    {
      "inputs": [
        {
          "internalType": "bytes32",
          "name": "role",
          "type": "bytes32"
        },
        {
          "internalType": "address",
          "name": "account",
          "type": "address"
        }
      ],
      "name": "revokeRole",
      "outputs": [],
      "stateMutability": "nonpayable",
      "type": "function"
    },
    {
      "inputs": [
        {
          "internalType": "bytes4",
          "name": "interfaceId",
          "type": "bytes4"
        }
      ],
      "name": "supportsInterface",
      "outputs": [
        {
          "internalType": "bool",
          "name": "",
          "type": "bool"
        }
      ],
      "stateMutability": "view",
      "type": "function"
    },
    {
      "inputs": [],
      "name": "symbol",
      "outputs": [
        {
          "internalType": "string",
          "name": "",
          "type": "string"
        }
      ],
      "stateMutability": "view",
      "type": "function"
    },
    {
      "inputs": [],
      "name": "totalSupply",
      "outputs": [
        {
          "internalType": "uint256",
          "name": "",
          "type": "uint256"
        }
      ],
      "stateMutability": "view",
      "type": "function"
    },
    {
      "inputs": [
        {
          "internalType": "address",
          "name": "recipient",
          "type": "address"
        },
        {
          "internalType": "uint256",
          "name": "amount",
          "type": "uint256"
        }
      ],
      "name": "transfer",
      "outputs": [
        {
          "internalType": "bool",
          "name": "",
          "type": "bool"
        }
      ],
      "stateMutability": "nonpayable",
      "type": "function"
    },
    {
      "inputs": [
        {
          "internalType": "address",
          "name": "sender",
          "type": "address"
        },
        {
          "internalType": "address",
          "name": "recipient",
          "type": "address"
        },
        {
          "internalType": "uint256",
          "name": "amount",
          "type": "uint256"
        }
      ],
      "name": "transferFrom",
      "outputs": [
        {
          "internalType": "bool",
          "name": "",
          "type": "bool"
        }
      ],
      "stateMutability": "nonpayable",
      "type": "function"
    },
    {
      "inputs": [],
      "name": "unpause",
      "outputs": [],
      "stateMutability": "nonpayable",
      "type": "function"
    }
  ],
  "bytecode": "0x60806040523480156200001157600080fd5b5060405162003ade38038062003ade83398181016040528101906200003791906200072b565b82828181816005908051906020019062000053929190620005f2565b5080600690805190602001906200006c929190620005f2565b5050506000600760006101000a81548160ff021916908315150217905550620000ae6000801b620000a26200014d60201b60201c565b6200015560201b60201c565b620000ef7f9f2df0fed2c77648de5860a4cc508cd0818c85b8b8a1ab4ceeef8d981c8956a6620000e36200014d60201b60201c565b6200015560201b60201c565b620001307f65d7a28e3265b37a6474929f336521b332c1681b933f6cb9f3376673440d862a620001246200014d60201b60201c565b6200015560201b60201c565b50506200014433826200019d60201b60201c565b50505062000ac1565b600033905090565b6200016c82826200030360201b62000efb1760201c565b6200019881600160008581526020019081526020016000206200031960201b62000f091790919060201c565b505050565b600073ffffffffffffffffffffffffffffffffffffffff168273ffffffffffffffffffffffffffffffffffffffff16141562000210576040517f08c379a000000000000000000000000000000000000000000000000000000000815260040162000207906200086e565b60405180910390fd5b62000224600083836200035160201b60201c565b806004600082825462000238919062000947565b9250508190555080600260008473ffffffffffffffffffffffffffffffffffffffff1673ffffffffffffffffffffffffffffffffffffffff168152602001908152602001600020600082825462000290919062000947565b925050819055508173ffffffffffffffffffffffffffffffffffffffff16600073ffffffffffffffffffffffffffffffffffffffff167fddf252ad1be2c89b69c2b068fc378daa952ba7f163c4a11628f55a4df523b3ef83604051620002f79190620008b2565b60405180910390a35050565b6200031582826200036e60201b60201c565b5050565b600062000349836000018373ffffffffffffffffffffffffffffffffffffffff1660001b6200045f60201b60201c565b905092915050565b62000369838383620004d960201b62000f391760201c565b505050565b6200038082826200054960201b60201c565b6200045b57600160008084815260200190815260200160002060000160008373ffffffffffffffffffffffffffffffffffffffff1673ffffffffffffffffffffffffffffffffffffffff16815260200190815260200160002060006101000a81548160ff021916908315150217905550620004006200014d60201b60201c565b73ffffffffffffffffffffffffffffffffffffffff168173ffffffffffffffffffffffffffffffffffffffff16837f2f8788117e7eff1d82e926ec794901d17c78024a50270940304540a733656f0d60405160405180910390a45b5050565b6000620004738383620005b360201b60201c565b620004ce578260000182908060018154018082558091505060019003906000526020600020016000909190919091505582600001805490508360010160008481526020019081526020016000208190555060019050620004d3565b600090505b92915050565b620004f1838383620005d660201b62000f911760201c565b62000501620005db60201b60201c565b1562000544576040517f08c379a00000000000000000000000000000000000000000000000000000000081526004016200053b9062000890565b60405180910390fd5b505050565b600080600084815260200190815260200160002060000160008373ffffffffffffffffffffffffffffffffffffffff1673ffffffffffffffffffffffffffffffffffffffff16815260200190815260200160002060009054906101000a900460ff16905092915050565b600080836001016000848152602001908152602001600020541415905092915050565b505050565b6000600760009054906101000a900460ff16905090565b8280546200060090620009e4565b90600052602060002090601f01602090048101928262000624576000855562000670565b82601f106200063f57805160ff191683800117855562000670565b8280016001018555821562000670579182015b828111156200066f57825182559160200191906001019062000652565b5b5090506200067f919062000683565b5090565b5b808211156200069e57600081600090555060010162000684565b5090565b6000620006b9620006b38462000903565b620008cf565b905082815260208101848484011115620006d257600080fd5b620006df848285620009ae565b509392505050565b600082601f830112620006f957600080fd5b81516200070b848260208601620006a2565b91505092915050565b600081519050620007258162000aa7565b92915050565b6000806000606084860312156200074157600080fd5b600084015167ffffffffffffffff8111156200075c57600080fd5b6200076a86828701620006e7565b935050602084015167ffffffffffffffff8111156200078857600080fd5b6200079686828701620006e7565b9250506040620007a98682870162000714565b9150509250925092565b6000620007c2601f8362000936565b91507f45524332303a206d696e7420746f20746865207a65726f2061646472657373006000830152602082019050919050565b600062000804602a8362000936565b91507f45524332305061757361626c653a20746f6b656e207472616e7366657220776860008301527f696c6520706175736564000000000000000000000000000000000000000000006020830152604082019050919050565b6200086881620009a4565b82525050565b600060208201905081810360008301526200088981620007b3565b9050919050565b60006020820190508181036000830152620008ab81620007f5565b9050919050565b6000602082019050620008c960008301846200085d565b92915050565b6000604051905081810181811067ffffffffffffffff82111715620008f957620008f862000a78565b5b8060405250919050565b600067ffffffffffffffff82111562000921576200092062000a78565b5b601f19601f8301169050602081019050919050565b600082825260208201905092915050565b60006200095482620009a4565b91506200096183620009a4565b9250827fffffffffffffffffffffffffffffffffffffffffffffffffffffffffffffffff0382111562000999576200099862000a1a565b5b828201905092915050565b6000819050919050565b60005b83811015620009ce578082015181840152602081019050620009b1565b83811115620009de576000848401525b50505050565b60006002820490506001821680620009fd57607f821691505b6020821081141562000a145762000a1362000a49565b5b50919050565b7f4e487b7100000000000000000000000000000000000000000000000000000000600052601160045260246000fd5b7f4e487b7100000000000000000000000000000000000000000000000000000000600052602260045260246000fd5b7f4e487b7100000000000000000000000000000000000000000000000000000000600052604160045260246000fd5b62000ab281620009a4565b811462000abe57600080fd5b50565b61300d8062000ad16000396000f3fe608060405234801561001057600080fd5b50600436106101c45760003560e01c806370a08231116100f9578063a457c2d711610097578063d539139311610071578063d53913931461052d578063d547741f1461054b578063dd62ed3e14610567578063e63ab1e914610597576101c4565b8063a457c2d71461049d578063a9059cbb146104cd578063ca15c873146104fd576101c4565b80639010d07c116100d35780639010d07c1461040157806391d148541461043157806395d89b4114610461578063a217fddf1461047f576101c4565b806370a08231146103ab57806379cc6790146103db5780638456cb59146103f7576101c4565b8063313ce567116101665780633f4ba83a116101405780633f4ba83a1461034b57806340c10f191461035557806342966c68146103715780635c975abb1461038d576101c4565b8063313ce567146102e157806336568abe146102ff578063395093511461031b576101c4565b806318160ddd116101a257806318160ddd1461024757806323b872dd14610265578063248a9ca3146102955780632f2ff15d146102c5576101c4565b806301ffc9a7146101c957806306fdde03146101f9578063095ea7b314610217575b600080fd5b6101e360048036038101906101de919061216b565b6105b5565b6040516101f09190612a48565b60405180910390f35b61020161062f565b60405161020e9190612a7e565b60405180910390f35b610231600480360381019061022c919061208e565b6106c1565b60405161023e9190612a48565b60405180910390f35b61024f6106df565b60405161025c9190612d40565b60405180910390f35b61027f600480360381019061027a919061203f565b6106e9565b60405161028c9190612a48565b60405180910390f35b6102af60048036038101906102aa91906120ca565b6107ea565b6040516102bc9190612a63565b60405180910390f35b6102df60048036038101906102da91906120f3565b610809565b005b6102e961083d565b6040516102f69190612d5b565b60405180910390f35b610319600480360381019061031491906120f3565b610846565b005b6103356004803603810190610330919061208e565b61087a565b6040516103429190612a48565b60405180910390f35b610353610926565b005b61036f600480360381019061036a919061208e565b6109a0565b005b61038b60048036038101906103869190612194565b610a1e565b005b610395610a32565b6040516103a29190612a48565b60405180910390f35b6103c560048036038101906103c09190611fda565b610a49565b6040516103d29190612d40565b60405180910390f35b6103f560048036038101906103f0919061208e565b610a92565b005b6103ff610b16565b005b61041b6004803603810190610416919061212f565b610b90565b6040516104289190612a2d565b60405180910390f35b61044b600480360381019061044691906120f3565b610bbf565b6040516104589190612a48565b60405180910390f35b610469610c29565b6040516104769190612a7e565b60405180910390f35b610487610cbb565b6040516104949190612a63565b60405180910390f35b6104b760048036038101906104b2919061208e565b610cc2565b6040516104c49190612a48565b60405180910390f35b6104e760048036038101906104e2919061208e565b610db6565b6040516104f49190612a48565b60405180910390f35b610517600480360381019061051291906120ca565b610dd4565b6040516105249190612d40565b60405180910390f35b610535610df8565b6040516105429190612a63565b60405180910390f35b610565600480360381019061056091906120f3565b610e1c565b005b610581600480360381019061057c9190612003565b610e50565b60405161058e9190612d40565b60405180910390f35b61059f610ed7565b6040516105ac9190612a63565b60405180910390f35b60007f5a05180f000000000000000000000000000000000000000000000000000000007bffffffffffffffffffffffffffffffffffffffffffffffffffffffff1916827bffffffffffffffffffffffffffffffffffffffffffffffffffffffff19161480610628575061062782610f96565b5b9050919050565b60606005805461063e90612eda565b80601f016020809104026020016040519081016040528092919081815260200182805461066a90612eda565b80156106b75780601f1061068c576101008083540402835291602001916106b7565b820191906000526020600020905b81548152906001019060200180831161069a57829003601f168201915b5050505050905090565b60006106d56106ce611010565b8484611018565b6001905092915050565b6000600454905090565b60006106f68484846111e3565b6000600360008673ffffffffffffffffffffffffffffffffffffffff1673ffffffffffffffffffffffffffffffffffffffff1681526020019081526020016000206000610741611010565b73ffffffffffffffffffffffffffffffffffffffff1673ffffffffffffffffffffffffffffffffffffffff168152602001908152602001600020549050828110156107c1576040517f08c379a00000000000000000000000000000000000000000000000000000000081526004016107b890612be0565b60405180910390fd5b6107de856107cd611010565b85846107d99190612de8565b611018565b60019150509392505050565b6000806000838152602001908152602001600020600101549050919050565b6108138282611465565b6108388160016000858152602001908152602001600020610f0990919063ffffffff16565b505050565b60006006905090565b61085082826114cb565b610875816001600085815260200190815260200160002061154e90919063ffffffff16565b505050565b600061091c610887611010565b848460036000610895611010565b73ffffffffffffffffffffffffffffffffffffffff1673ffffffffffffffffffffffffffffffffffffffff16815260200190815260200160002060008873ffffffffffffffffffffffffffffffffffffffff1673ffffffffffffffffffffffffffffffffffffffff168152602001908152602001600020546109179190612d92565b611018565b6001905092915050565b6109577f65d7a28e3265b37a6474929f336521b332c1681b933f6cb9f3376673440d862a610952611010565b610bbf565b610996576040517f08c379a000000000000000000000000000000000000000000000000000000000815260040161098d90612b40565b60405180910390fd5b61099e61157e565b565b6109d17f9f2df0fed2c77648de5860a4cc508cd0818c85b8b8a1ab4ceeef8d981c8956a66109cc611010565b610bbf565b610a10576040517f08c379a0000000000000000000000000000000000000000000000000000000008152600401610a0790612c00565b60405180910390fd5b610a1a8282611620565b5050565b610a2f610a29611010565b82611775565b50565b6000600760009054906101000a900460ff16905090565b6000600260008373ffffffffffffffffffffffffffffffffffffffff1673ffffffffffffffffffffffffffffffffffffffff168152602001908152602001600020549050919050565b6000610aa583610aa0611010565b610e50565b905081811015610aea576040517f08c379a0000000000000000000000000000000000000000000000000000000008152600401610ae190612c20565b60405180910390fd5b610b0783610af6611010565b8484610b029190612de8565b611018565b610b118383611775565b505050565b610b477f65d7a28e3265b37a6474929f336521b332c1681b933f6cb9f3376673440d862a610b42611010565b610bbf565b610b86576040517f08c379a0000000000000000000000000000000000000000000000000000000008152600401610b7d90612ca0565b60405180910390fd5b610b8e61194b565b565b6000610bb782600160008681526020019081526020016000206119ee90919063ffffffff16565b905092915050565b600080600084815260200190815260200160002060000160008373ffffffffffffffffffffffffffffffffffffffff1673ffffffffffffffffffffffffffffffffffffffff16815260200190815260200160002060009054906101000a900460ff16905092915050565b606060068054610c3890612eda565b80601f0160208091040260200160405190810160405280929190818152602001828054610c6490612eda565b8015610cb15780601f10610c8657610100808354040283529160200191610cb1565b820191906000526020600020905b815481529060010190602001808311610c9457829003601f168201915b5050505050905090565b6000801b81565b60008060036000610cd1611010565b73ffffffffffffffffffffffffffffffffffffffff1673ffffffffffffffffffffffffffffffffffffffff16815260200190815260200160002060008573ffffffffffffffffffffffffffffffffffffffff1673ffffffffffffffffffffffffffffffffffffffff16815260200190815260200160002054905082811015610d8e576040517f08c379a0000000000000000000000000000000000000000000000000000000008152600401610d8590612cc0565b60405180910390fd5b610dab610d99611010565b858584610da69190612de8565b611018565b600191505092915050565b6000610dca610dc3611010565b84846111e3565b6001905092915050565b6000610df160016000848152602001908152602001600020611a08565b9050919050565b7f9f2df0fed2c77648de5860a4cc508cd0818c85b8b8a1ab4ceeef8d981c8956a681565b610e268282611a1d565b610e4b816001600085815260200190815260200160002061154e90919063ffffffff16565b505050565b6000600360008473ffffffffffffffffffffffffffffffffffffffff1673ffffffffffffffffffffffffffffffffffffffff16815260200190815260200160002060008373ffffffffffffffffffffffffffffffffffffffff1673ffffffffffffffffffffffffffffffffffffffff16815260200190815260200160002054905092915050565b7f65d7a28e3265b37a6474929f336521b332c1681b933f6cb9f3376673440d862a81565b610f058282611a83565b5050565b6000610f31836000018373ffffffffffffffffffffffffffffffffffffffff1660001b611b63565b905092915050565b610f44838383610f91565b610f4c610a32565b15610f8c576040517f08c379a0000000000000000000000000000000000000000000000000000000008152600401610f8390612d20565b60405180910390fd5b505050565b505050565b60007f7965db0b000000000000000000000000000000000000000000000000000000007bffffffffffffffffffffffffffffffffffffffffffffffffffffffff1916827bffffffffffffffffffffffffffffffffffffffffffffffffffffffff19161480611009575061100882611bd3565b5b9050919050565b600033905090565b600073ffffffffffffffffffffffffffffffffffffffff168373ffffffffffffffffffffffffffffffffffffffff161415611088576040517f08c379a000000000000000000000000000000000000000000000000000000000815260040161107f90612c80565b60405180910390fd5b600073ffffffffffffffffffffffffffffffffffffffff168273ffffffffffffffffffffffffffffffffffffffff1614156110f8576040517f08c379a00000000000000000000000000000000000000000000000000000000081526004016110ef90612b60565b60405180910390fd5b80600360008573ffffffffffffffffffffffffffffffffffffffff1673ffffffffffffffffffffffffffffffffffffffff16815260200190815260200160002060008473ffffffffffffffffffffffffffffffffffffffff1673ffffffffffffffffffffffffffffffffffffffff168152602001908152602001600020819055508173ffffffffffffffffffffffffffffffffffffffff168373ffffffffffffffffffffffffffffffffffffffff167f8c5be1e5ebec7d5bd14f71427d1e84f3dd0314c0f7b2291e5b200ac8c7c3b925836040516111d69190612d40565b60405180910390a3505050565b600073ffffffffffffffffffffffffffffffffffffffff168373ffffffffffffffffffffffffffffffffffffffff161415611253576040517f08c379a000000000000000000000000000000000000000000000000000000000815260040161124a90612c60565b60405180910390fd5b600073ffffffffffffffffffffffffffffffffffffffff168273ffffffffffffffffffffffffffffffffffffffff1614156112c3576040517f08c379a00000000000000000000000000000000000000000000000000000000081526004016112ba90612ac0565b60405180910390fd5b6112ce838383611c3d565b6000600260008573ffffffffffffffffffffffffffffffffffffffff1673ffffffffffffffffffffffffffffffffffffffff16815260200190815260200160002054905081811015611355576040517f08c379a000000000000000000000000000000000000000000000000000000000815260040161134c90612b80565b60405180910390fd5b81816113619190612de8565b600260008673ffffffffffffffffffffffffffffffffffffffff1673ffffffffffffffffffffffffffffffffffffffff1681526020019081526020016000208190555081600260008573ffffffffffffffffffffffffffffffffffffffff1673ffffffffffffffffffffffffffffffffffffffff16815260200190815260200160002060008282546113f39190612d92565b925050819055508273ffffffffffffffffffffffffffffffffffffffff168473ffffffffffffffffffffffffffffffffffffffff167fddf252ad1be2c89b69c2b068fc378daa952ba7f163c4a11628f55a4df523b3ef846040516114579190612d40565b60405180910390a350505050565b61147e611471836107ea565b611479611010565b610bbf565b6114bd576040517f08c379a00000000000000000000000000000000000000000000000000000000081526004016114b490612ae0565b60405180910390fd5b6114c78282611a83565b5050565b6114d3611010565b73ffffffffffffffffffffffffffffffffffffffff168173ffffffffffffffffffffffffffffffffffffffff1614611540576040517f08c379a000000000000000000000000000000000000000000000000000000000815260040161153790612ce0565b60405180910390fd5b61154a8282611c4d565b5050565b6000611576836000018373ffffffffffffffffffffffffffffffffffffffff1660001b611d2e565b905092915050565b611586610a32565b6115c5576040517f08c379a00000000000000000000000000000000000000000000000000000000081526004016115bc90612b00565b60405180910390fd5b6000600760006101000a81548160ff0219169083151502179055507f5db9ee0a495bf2e6ff9c91a7834c1ba4fdd244a5e8aa4e537bd38aeae4b073aa611609611010565b6040516116169190612a2d565b60405180910390a1565b600073ffffffffffffffffffffffffffffffffffffffff168273ffffffffffffffffffffffffffffffffffffffff161415611690576040517f08c379a000000000000000000000000000000000000000000000000000000000815260040161168790612d00565b60405180910390fd5b61169c60008383611c3d565b80600460008282546116ae9190612d92565b9250508190555080600260008473ffffffffffffffffffffffffffffffffffffffff1673ffffffffffffffffffffffffffffffffffffffff16815260200190815260200160002060008282546117049190612d92565b925050819055508173ffffffffffffffffffffffffffffffffffffffff16600073ffffffffffffffffffffffffffffffffffffffff167fddf252ad1be2c89b69c2b068fc378daa952ba7f163c4a11628f55a4df523b3ef836040516117699190612d40565b60405180910390a35050565b600073ffffffffffffffffffffffffffffffffffffffff168273ffffffffffffffffffffffffffffffffffffffff1614156117e5576040517f08c379a00000000000000000000000000000000000000000000000000000000081526004016117dc90612c40565b60405180910390fd5b6117f182600083611c3d565b6000600260008473ffffffffffffffffffffffffffffffffffffffff1673ffffffffffffffffffffffffffffffffffffffff16815260200190815260200160002054905081811015611878576040517f08c379a000000000000000000000000000000000000000000000000000000000815260040161186f90612b20565b60405180910390fd5b81816118849190612de8565b600260008573ffffffffffffffffffffffffffffffffffffffff1673ffffffffffffffffffffffffffffffffffffffff1681526020019081526020016000208190555081600460008282546118d99190612de8565b92505081905550600073ffffffffffffffffffffffffffffffffffffffff168373ffffffffffffffffffffffffffffffffffffffff167fddf252ad1be2c89b69c2b068fc378daa952ba7f163c4a11628f55a4df523b3ef8460405161193e9190612d40565b60405180910390a3505050565b611953610a32565b15611993576040517f08c379a000000000000000000000000000000000000000000000000000000000815260040161198a90612bc0565b60405180910390fd5b6001600760006101000a81548160ff0219169083151502179055507f62e78cea01bee320cd4e420270b5ea74000d11b0c9f74754ebdbfc544b05a2586119d7611010565b6040516119e49190612a2d565b60405180910390a1565b60006119fd8360000183611eb8565b60001c905092915050565b6000611a1682600001611f52565b9050919050565b611a36611a29836107ea565b611a31611010565b610bbf565b611a75576040517f08c379a0000000000000000000000000000000000000000000000000000000008152600401611a6c90612ba0565b60405180910390fd5b611a7f8282611c4d565b5050565b611a8d8282610bbf565b611b5f57600160008084815260200190815260200160002060000160008373ffffffffffffffffffffffffffffffffffffffff1673ffffffffffffffffffffffffffffffffffffffff16815260200190815260200160002060006101000a81548160ff021916908315150217905550611b04611010565b73ffffffffffffffffffffffffffffffffffffffff168173ffffffffffffffffffffffffffffffffffffffff16837f2f8788117e7eff1d82e926ec794901d17c78024a50270940304540a733656f0d60405160405180910390a45b5050565b6000611b6f8383611f63565b611bc8578260000182908060018154018082558091505060019003906000526020600020016000909190919091505582600001805490508360010160008481526020019081526020016000208190555060019050611bcd565b600090505b92915050565b60007f01ffc9a7000000000000000000000000000000000000000000000000000000007bffffffffffffffffffffffffffffffffffffffffffffffffffffffff1916827bffffffffffffffffffffffffffffffffffffffffffffffffffffffff1916149050919050565b611c48838383610f39565b505050565b611c578282610bbf565b15611d2a57600080600084815260200190815260200160002060000160008373ffffffffffffffffffffffffffffffffffffffff1673ffffffffffffffffffffffffffffffffffffffff16815260200190815260200160002060006101000a81548160ff021916908315150217905550611ccf611010565b73ffffffffffffffffffffffffffffffffffffffff168173ffffffffffffffffffffffffffffffffffffffff16837ff6391f5c32d9c69d2a47ea670b442974b53935d1edc7fd64eb21e047a839171b60405160405180910390a45b5050565b60008083600101600084815260200190815260200160002054905060008114611eac576000600182611d609190612de8565b9050600060018660000180549050611d789190612de8565b90506000866000018281548110611db8577f4e487b7100000000000000000000000000000000000000000000000000000000600052603260045260246000fd5b9060005260206000200154905080876000018481548110611e02577f4e487b7100000000000000000000000000000000000000000000000000000000600052603260045260246000fd5b9060005260206000200181905550600183611e1d9190612d92565b8760010160008381526020019081526020016000208190555086600001805480611e70577f4e487b7100000000000000000000000000000000000000000000000000000000600052603160045260246000fd5b60019003818190600052602060002001600090559055866001016000878152602001908152602001600020600090556001945050505050611eb2565b60009150505b92915050565b600081836000018054905011611f03576040517f08c379a0000000000000000000000000000000000000000000000000000000008152600401611efa90612aa0565b60405180910390fd5b826000018281548110611f3f577f4e487b7100000000000000000000000000000000000000000000000000000000600052603260045260246000fd5b9060005260206000200154905092915050565b600081600001805490509050919050565b600080836001016000848152602001908152602001600020541415905092915050565b600081359050611f9581612f7b565b92915050565b600081359050611faa81612f92565b92915050565b600081359050611fbf81612fa9565b92915050565b600081359050611fd481612fc0565b92915050565b600060208284031215611fec57600080fd5b6000611ffa84828501611f86565b91505092915050565b6000806040838503121561201657600080fd5b600061202485828601611f86565b925050602061203585828601611f86565b9150509250929050565b60008060006060848603121561205457600080fd5b600061206286828701611f86565b935050602061207386828701611f86565b925050604061208486828701611fc5565b9150509250925092565b600080604083850312156120a157600080fd5b60006120af85828601611f86565b92505060206120c085828601611fc5565b9150509250929050565b6000602082840312156120dc57600080fd5b60006120ea84828501611f9b565b91505092915050565b6000806040838503121561210657600080fd5b600061211485828601611f9b565b925050602061212585828601611f86565b9150509250929050565b6000806040838503121561214257600080fd5b600061215085828601611f9b565b925050602061216185828601611fc5565b9150509250929050565b60006020828403121561217d57600080fd5b600061218b84828501611fb0565b91505092915050565b6000602082840312156121a657600080fd5b60006121b484828501611fc5565b91505092915050565b6121c681612e1c565b82525050565b6121d581612e2e565b82525050565b6121e481612e3a565b82525050565b60006121f582612d76565b6121ff8185612d81565b935061220f818560208601612ea7565b61221881612f6a565b840191505092915050565b6000612230602283612d81565b91507f456e756d657261626c655365743a20696e646578206f7574206f6620626f756e60008301527f64730000000000000000000000000000000000000000000000000000000000006020830152604082019050919050565b6000612296602383612d81565b91507f45524332303a207472616e7366657220746f20746865207a65726f206164647260008301527f65737300000000000000000000000000000000000000000000000000000000006020830152604082019050919050565b60006122fc602f83612d81565b91507f416363657373436f6e74726f6c3a2073656e646572206d75737420626520616e60008301527f2061646d696e20746f206772616e7400000000000000000000000000000000006020830152604082019050919050565b6000612362601483612d81565b91507f5061757361626c653a206e6f74207061757365640000000000000000000000006000830152602082019050919050565b60006123a2602283612d81565b91507f45524332303a206275726e20616d6f756e7420657863656564732062616c616e60008301527f63650000000000000000000000000000000000000000000000000000000000006020830152604082019050919050565b6000612408603983612d81565b91507f45524332305072657365744d696e7465725061757365723a206d75737420686160008301527f76652070617573657220726f6c6520746f20756e7061757365000000000000006020830152604082019050919050565b600061246e602283612d81565b91507f45524332303a20617070726f766520746f20746865207a65726f20616464726560008301527f73730000000000000000000000000000000000000000000000000000000000006020830152604082019050919050565b60006124d4602683612d81565b91507f45524332303a207472616e7366657220616d6f756e742065786365656473206260008301527f616c616e636500000000000000000000000000000000000000000000000000006020830152604082019050919050565b600061253a603083612d81565b91507f416363657373436f6e74726f6c3a2073656e646572206d75737420626520616e60008301527f2061646d696e20746f207265766f6b65000000000000000000000000000000006020830152604082019050919050565b60006125a0601083612d81565b91507f5061757361626c653a20706175736564000000000000000000000000000000006000830152602082019050919050565b60006125e0602883612d81565b91507f45524332303a207472616e7366657220616d6f756e742065786365656473206160008301527f6c6c6f77616e63650000000000000000000000000000000000000000000000006020830152604082019050919050565b6000612646603683612d81565b91507f45524332305072657365744d696e7465725061757365723a206d75737420686160008301527f7665206d696e74657220726f6c6520746f206d696e74000000000000000000006020830152604082019050919050565b60006126ac602483612d81565b91507f45524332303a206275726e20616d6f756e74206578636565647320616c6c6f7760008301527f616e6365000000000000000000000000000000000000000000000000000000006020830152604082019050919050565b6000612712602183612d81565b91507f45524332303a206275726e2066726f6d20746865207a65726f2061646472657360008301527f73000000000000000000000000000000000000000000000000000000000000006020830152604082019050919050565b6000612778602583612d81565b91507f45524332303a207472616e736665722066726f6d20746865207a65726f20616460008301527f64726573730000000000000000000000000000000000000000000000000000006020830152604082019050919050565b60006127de602483612d81565b91507f45524332303a20617070726f76652066726f6d20746865207a65726f2061646460008301527f72657373000000000000000000000000000000000000000000000000000000006020830152604082019050919050565b6000612844603783612d81565b91507f45524332305072657365744d696e7465725061757365723a206d75737420686160008301527f76652070617573657220726f6c6520746f2070617573650000000000000000006020830152604082019050919050565b60006128aa602583612d81565b91507f45524332303a2064656372656173656420616c6c6f77616e63652062656c6f7760008301527f207a65726f0000000000000000000000000000000000000000000000000000006020830152604082019050919050565b6000612910602f83612d81565b91507f416363657373436f6e74726f6c3a2063616e206f6e6c792072656e6f756e636560008301527f20726f6c657320666f722073656c6600000000000000000000000000000000006020830152604082019050919050565b6000612976601f83612d81565b91507f45524332303a206d696e7420746f20746865207a65726f2061646472657373006000830152602082019050919050565b60006129b6602a83612d81565b91507f45524332305061757361626c653a20746f6b656e207472616e7366657220776860008301527f696c6520706175736564000000000000000000000000000000000000000000006020830152604082019050919050565b612a1881612e90565b82525050565b612a2781612e9a565b82525050565b6000602082019050612a4260008301846121bd565b92915050565b6000602082019050612a5d60008301846121cc565b92915050565b6000602082019050612a7860008301846121db565b92915050565b60006020820190508181036000830152612a9881846121ea565b905092915050565b60006020820190508181036000830152612ab981612223565b9050919050565b60006020820190508181036000830152612ad981612289565b9050919050565b60006020820190508181036000830152612af9816122ef565b9050919050565b60006020820190508181036000830152612b1981612355565b9050919050565b60006020820190508181036000830152612b3981612395565b9050919050565b60006020820190508181036000830152612b59816123fb565b9050919050565b60006020820190508181036000830152612b7981612461565b9050919050565b60006020820190508181036000830152612b99816124c7565b9050919050565b60006020820190508181036000830152612bb98161252d565b9050919050565b60006020820190508181036000830152612bd981612593565b9050919050565b60006020820190508181036000830152612bf9816125d3565b9050919050565b60006020820190508181036000830152612c1981612639565b9050919050565b60006020820190508181036000830152612c398161269f565b9050919050565b60006020820190508181036000830152612c5981612705565b9050919050565b60006020820190508181036000830152612c798161276b565b9050919050565b60006020820190508181036000830152612c99816127d1565b9050919050565b60006020820190508181036000830152612cb981612837565b9050919050565b60006020820190508181036000830152612cd98161289d565b9050919050565b60006020820190508181036000830152612cf981612903565b9050919050565b60006020820190508181036000830152612d1981612969565b9050919050565b60006020820190508181036000830152612d39816129a9565b9050919050565b6000602082019050612d556000830184612a0f565b92915050565b6000602082019050612d706000830184612a1e565b92915050565b600081519050919050565b600082825260208201905092915050565b6000612d9d82612e90565b9150612da883612e90565b9250827fffffffffffffffffffffffffffffffffffffffffffffffffffffffffffffffff03821115612ddd57612ddc612f0c565b5b828201905092915050565b6000612df382612e90565b9150612dfe83612e90565b925082821015612e1157612e10612f0c565b5b828203905092915050565b6000612e2782612e70565b9050919050565b60008115159050919050565b6000819050919050565b60007fffffffff0000000000000000000000000000000000000000000000000000000082169050919050565b600073ffffffffffffffffffffffffffffffffffffffff82169050919050565b6000819050919050565b600060ff82169050919050565b60005b83811015612ec5578082015181840152602081019050612eaa565b83811115612ed4576000848401525b50505050565b60006002820490506001821680612ef257607f821691505b60208210811415612f0657612f05612f3b565b5b50919050565b7f4e487b7100000000000000000000000000000000000000000000000000000000600052601160045260246000fd5b7f4e487b7100000000000000000000000000000000000000000000000000000000600052602260045260246000fd5b6000601f19601f8301169050919050565b612f8481612e1c565b8114612f8f57600080fd5b50565b612f9b81612e3a565b8114612fa657600080fd5b50565b612fb281612e44565b8114612fbd57600080fd5b50565b612fc981612e90565b8114612fd457600080fd5b5056fea26469706673582212201185484362fb04c020c5b9cbf1c6b5b983eb4d92afb3da30a2ef7d479c142fad64736f6c63430008000033",
  "immutableReferences": {},
  "source": "pragma solidity ^0.8.0;\nimport \"@openzeppelin/contracts/token/ERC20/presets/ERC20PresetMinterPauser.sol\";\n\ncontract USDCToken is ERC20PresetMinterPauser {\n    constructor(\n        string memory name,\n        string memory symbol,\n        uint256 initialSupply\n    ) ERC20PresetMinterPauser(name, symbol) {\n        _mint(msg.sender, initialSupply);\n    }\n}",
  "sourcePath": "/home/saadjhk/Desktop/dTrade/usdc-token/contracts/USDCToken.sol",
  "compiler": {
    "name": "solc",
    "version": "0.8.0+commit.c7dfd78e.Emscripten.clang"
  },
  "schemaVersion": "3.3.3",
  "updatedAt": "2021-04-01T14:54:41.195Z",
  "devdoc": {
    "kind": "dev",
    "methods": {
      "allowance(address,address)": {
        "details": "See {IERC20-allowance}."
      },
      "approve(address,uint256)": {
        "details": "See {IERC20-approve}. Requirements: - `spender` cannot be the zero address."
      },
      "balanceOf(address)": {
        "details": "See {IERC20-balanceOf}."
      },
      "burn(uint256)": {
        "details": "Destroys `amount` tokens from the caller. See {ERC20-_burn}."
      },
      "burnFrom(address,uint256)": {
        "details": "Destroys `amount` tokens from `account`, deducting from the caller's allowance. See {ERC20-_burn} and {ERC20-allowance}. Requirements: - the caller must have allowance for ``accounts``'s tokens of at least `amount`."
      },
      "decimals()": {
        "details": "Returns the number of decimals used to get its user representation. For example, if `decimals` equals `2`, a balance of `505` tokens should be displayed to a user as `5,05` (`505 / 10 ** 2`). Tokens usually opt for a value of 18, imitating the relationship between Ether and Wei. This is the value {ERC20} uses, unless this function is overloaded; NOTE: This information is only used for _display_ purposes: it in no way affects any of the arithmetic of the contract, including {IERC20-balanceOf} and {IERC20-transfer}."
      },
      "decreaseAllowance(address,uint256)": {
        "details": "Atomically decreases the allowance granted to `spender` by the caller. This is an alternative to {approve} that can be used as a mitigation for problems described in {IERC20-approve}. Emits an {Approval} event indicating the updated allowance. Requirements: - `spender` cannot be the zero address. - `spender` must have allowance for the caller of at least `subtractedValue`."
      },
      "getRoleAdmin(bytes32)": {
        "details": "Returns the admin role that controls `role`. See {grantRole} and {revokeRole}. To change a role's admin, use {_setRoleAdmin}."
      },
      "getRoleMember(bytes32,uint256)": {
        "details": "Returns one of the accounts that have `role`. `index` must be a value between 0 and {getRoleMemberCount}, non-inclusive. Role bearers are not sorted in any particular way, and their ordering may change at any point. WARNING: When using {getRoleMember} and {getRoleMemberCount}, make sure you perform all queries on the same block. See the following https://forum.openzeppelin.com/t/iterating-over-elements-on-enumerableset-in-openzeppelin-contracts/2296[forum post] for more information."
      },
      "getRoleMemberCount(bytes32)": {
        "details": "Returns the number of accounts that have `role`. Can be used together with {getRoleMember} to enumerate all bearers of a role."
      },
      "grantRole(bytes32,address)": {
        "details": "Overload {grantRole} to track enumerable memberships"
      },
      "hasRole(bytes32,address)": {
        "details": "Returns `true` if `account` has been granted `role`."
      },
      "increaseAllowance(address,uint256)": {
        "details": "Atomically increases the allowance granted to `spender` by the caller. This is an alternative to {approve} that can be used as a mitigation for problems described in {IERC20-approve}. Emits an {Approval} event indicating the updated allowance. Requirements: - `spender` cannot be the zero address."
      },
      "mint(address,uint256)": {
        "details": "Creates `amount` new tokens for `to`. See {ERC20-_mint}. Requirements: - the caller must have the `MINTER_ROLE`."
      },
      "name()": {
        "details": "Returns the name of the token."
      },
      "pause()": {
        "details": "Pauses all token transfers. See {ERC20Pausable} and {Pausable-_pause}. Requirements: - the caller must have the `PAUSER_ROLE`."
      },
      "paused()": {
        "details": "Returns true if the contract is paused, and false otherwise."
      },
      "renounceRole(bytes32,address)": {
        "details": "Overload {renounceRole} to track enumerable memberships"
      },
      "revokeRole(bytes32,address)": {
        "details": "Overload {revokeRole} to track enumerable memberships"
      },
      "supportsInterface(bytes4)": {
        "details": "See {IERC165-supportsInterface}."
      },
      "symbol()": {
        "details": "Returns the symbol of the token, usually a shorter version of the name."
      },
      "totalSupply()": {
        "details": "See {IERC20-totalSupply}."
      },
      "transfer(address,uint256)": {
        "details": "See {IERC20-transfer}. Requirements: - `recipient` cannot be the zero address. - the caller must have a balance of at least `amount`."
      },
      "transferFrom(address,address,uint256)": {
        "details": "See {IERC20-transferFrom}. Emits an {Approval} event indicating the updated allowance. This is not required by the EIP. See the note at the beginning of {ERC20}. Requirements: - `sender` and `recipient` cannot be the zero address. - `sender` must have a balance of at least `amount`. - the caller must have allowance for ``sender``'s tokens of at least `amount`."
      },
      "unpause()": {
        "details": "Unpauses all token transfers. See {ERC20Pausable} and {Pausable-_unpause}. Requirements: - the caller must have the `PAUSER_ROLE`."
      }
    },
    "version": 1
  },
  "userdoc": {
    "kind": "user",
    "methods": {},
    "version": 1
  }
}